{
  "contractName": "Marketplace",
  "abi": [
    {
      "inputs": [
        {
          "internalType": "address",
          "name": "_cadabraCoinAddress",
          "type": "address"
        }
      ],
      "stateMutability": "nonpayable",
      "type": "constructor"
    },
    {
      "inputs": [],
      "name": "cadabraCoinAddress",
      "outputs": [
        {
          "internalType": "address",
          "name": "",
          "type": "address"
        }
      ],
      "stateMutability": "view",
      "type": "function",
      "constant": true
    },
    {
      "inputs": [],
      "name": "getNumberOfItems",
      "outputs": [
        {
          "internalType": "uint256",
          "name": "",
          "type": "uint256"
        }
      ],
      "stateMutability": "view",
      "type": "function",
      "constant": true
    },
    {
      "inputs": [],
      "name": "getEarningsInUSD",
      "outputs": [
        {
          "internalType": "uint256",
          "name": "",
          "type": "uint256"
        }
      ],
      "stateMutability": "view",
      "type": "function",
      "constant": true
    },
    {
      "inputs": [],
      "name": "getAllItemsAndPrices",
      "outputs": [
        {
          "components": [
            {
              "internalType": "string",
              "name": "item",
              "type": "string"
            },
            {
              "internalType": "uint256",
              "name": "priceInUSD",
              "type": "uint256"
            },
            {
              "internalType": "uint256",
              "name": "priceInCDBRA",
              "type": "uint256"
            }
          ],
          "internalType": "struct Marketplace.itemStruct[]",
          "name": "",
          "type": "tuple[]"
        }
      ],
      "stateMutability": "view",
      "type": "function",
      "constant": true
    },
    {
      "inputs": [
        {
          "internalType": "string",
          "name": "_item",
          "type": "string"
        },
        {
          "internalType": "uint256",
          "name": "_priceInUSD",
          "type": "uint256"
        }
      ],
      "name": "addItem",
      "outputs": [],
      "stateMutability": "nonpayable",
      "type": "function"
    },
    {
      "inputs": [
        {
          "internalType": "string",
          "name": "_item",
          "type": "string"
        }
      ],
      "name": "purchaseItem",
      "outputs": [
        {
          "internalType": "string",
          "name": "",
          "type": "string"
        }
      ],
      "stateMutability": "nonpayable",
      "type": "function"
    },
    {
      "inputs": [],
      "name": "getSenderPurchases",
      "outputs": [
        {
          "components": [
            {
              "internalType": "string",
              "name": "item",
              "type": "string"
            },
            {
              "internalType": "string",
              "name": "passage",
              "type": "string"
            }
          ],
          "internalType": "struct Marketplace.purchasedItemStruct[]",
          "name": "",
          "type": "tuple[]"
        }
      ],
      "stateMutability": "view",
      "type": "function",
      "constant": true
    }
  ],
  "bytecode": "0x60806040523480156200001157600080fd5b506040516200142f3803806200142f833981016040819052620000349162000650565b60008054600160a060020a031916600160a060020a0383161790556040805160a0810182526005606082018181527f6974656d3100000000000000000000000000000000000000000000000000000060808401528252600a6020830152612710828401529151909190620000a890620006fb565b90815260200160405180910390206000820151816000019080519060200190620000d4929190620005ab565b5060208281015160018301556040928301516002909201919091558151808301909252600582527f6974656d3100000000000000000000000000000000000000000000000000000082820190815260008052600690915290516200015a917f54cdd369e4e8a8515e52ca72ec816c2101831ad1f18bf44102ed171459c9b4f891620005ab565b506040805160a0810182526005606082018181527f6974656d320000000000000000000000000000000000000000000000000000006080840152825260146020830152614e20828401529151909190620001b490620006d2565b90815260200160405180910390206000820151816000019080519060200190620001e0929190620005ab565b506020828101516001808401919091556040938401516002909301929092558251808401909352600583527f6974656d320000000000000000000000000000000000000000000000000000008382019081526000929092526006905290516200026b917f3e5fec24aa4dc4e5aee2e025e51e1392c72a2500577559fae9665c6d52bd6a3191620005ab565b506040805160a0810182526005606082018181527f6974656d3300000000000000000000000000000000000000000000000000000060808401528252601e6020830152617530828401529151909190620002c59062000724565b90815260200160405180910390206000820151816000019080519060200190620002f1929190620005ab565b5060208281015160018301556040928301516002928301558251808401909352600583527f6974656d3300000000000000000000000000000000000000000000000000000083820190815260009290925260069052905162000375917f8819ef417987f8ae7a81f42cdfb18815282fe989326fbff903d13cf0e03ace2991620005ab565b506040805160a0810182526005606082018181527f6974656d340000000000000000000000000000000000000000000000000000006080840152825260286020830152619c40828401529151909190620003cf9062000680565b90815260200160405180910390206000820151816000019080519060200190620003fb929190620005ab565b5060208281015160018301556040928301516002909201919091558151808301909252600582527f6974656d3400000000000000000000000000000000000000000000000000000082820190815260036000526006909152905162000482917f75f96ab15d697e93042dc45b5c896c4b27e89bb6eaf39475c5c371cb2513f7d291620005ab565b506040805160a0810182526005606082018181527f6974656d35000000000000000000000000000000000000000000000000000000608084015282526032602083015261c350828401529151909190620004dc90620006a9565b9081526020016040518091039020600082015181600001908051906020019062000508929190620005ab565b5060208281015160018301556040928301516002909201919091558151808301909252600582527f6974656d350000000000000000000000000000000000000000000000000000008282019081526004600052600690915290516200058f917fc5069e24aaadb2addc3e52e868fcf3f4f8acf5a87e24300992fd4540c2a87eed91620005ab565b505060056001556000600281905560038190556004556200074d565b828054600181600116156101000203166002900490600052602060002090601f016020900481019282601f10620005ee57805160ff19168380011785556200061e565b828001600101855582156200061e579182015b828111156200061e57825182559160200191906001019062000601565b506200062c92915062000630565b5090565b6200064d91905b808211156200062c576000815560010162000637565b90565b60006020828403121562000662578081fd5b8151600160a060020a038116811462000679578182fd5b9392505050565b7f6974656d34000000000000000000000000000000000000000000000000000000815260050190565b7f6974656d35000000000000000000000000000000000000000000000000000000815260050190565b7f6974656d32000000000000000000000000000000000000000000000000000000815260050190565b7f6974656d31000000000000000000000000000000000000000000000000000000815260050190565b7f6974656d33000000000000000000000000000000000000000000000000000000815260050190565b610cd2806200075d6000396000f3fe608060405234801561001057600080fd5b506004361061009a576000357c01000000000000000000000000000000000000000000000000000000009004806372f45bcd1161007857806372f45bcd146100e7578063730ef26914610107578063b4e004531461010f578063b76f2339146101245761009a565b806314c834a41461009f578063211a82aa146100bd57806362d6bbdf146100d2575b600080fd5b6100a7610139565b6040516100b49190610c63565b60405180910390f35b6100c5610140565b6040516100b49190610bd9565b6100e56100e0366004610a7d565b6102d6565b005b6100fa6100f5366004610a42565b610387565b6040516100b49190610c50565b6100a761043e565b610117610444565b6040516100b49190610b08565b61012c610460565b6040516100b49190610b5a565b6002545b90565b336000908152600760209081526040808320805482518185028101850190935280835260609492939192909184015b828210156102cd5760008481526020908190206040805160028681029093018054600181161561010002600019011693909304601f8101859004909402810160609081018352918101848152909384928491908401828280156102135780601f106101e857610100808354040283529160200191610213565b820191906000526020600020905b8154815290600101906020018083116101f657829003601f168201915b50505050508152602001600182018054600181600116156101000203166002900480601f0160208091040260200160405190810160405280929190818152602001828054600181600116156101000203166002900480156102b55780601f1061028a576101008083540402835291602001916102b5565b820191906000526020600020905b81548152906001019060200180831161029857829003601f168201915b5050505050815250508152602001906001019061016f565b50505050905090565b6000600354826103e80203905060405180606001604052808481526020018381526020018281525060058460405161030e9190610aec565b908152602001604051809103902060008201518160000190805190602001906103389291906108e4565b5060208201518160010155604082015181600201559050508260066000600154815260200190815260200160002090805190602001906103799291906108e4565b505060018054810190555050565b6060600060058360405161039b9190610aec565b908152602001604051809103902060010154905060006005846040516103c19190610aec565b90815260200160405180910390206002015490506103de81610639565b61041e33856040518060400160405280600e81526020017f73616d706c6520706173736167650000000000000000000000000000000000008152506106ec565b600280548301905561042e610771565b61043661078f565b509192915050565b60015490565b60005473ffffffffffffffffffffffffffffffffffffffff1681565b60608060015460405190808252806020026020018201604052801561049f57816020015b61048c610962565b8152602001906001900390816104845790505b50905060005b6001548110156106335760008181526006602090815260409182902080548351601f60026000196101006001861615020190931692909204918201849004840281018401909452808452606093928301828280156105445780601f1061051957610100808354040283529160200191610544565b820191906000526020600020905b81548152906001019060200180831161052757829003601f168201915b5050505050905060058160405161055b9190610aec565b9081526040805160209281900383018120805460026001821615610100026000190190911604601f810185900490940282016080908101909352606082018481529193909284929184918401828280156105f65780601f106105cb576101008083540402835291602001916105f6565b820191906000526020600020905b8154815290600101906020018083116105d957829003601f168201915b505050505081526020016001820154815260200160028201548152505083838151811061061f57fe5b6020908102919091010152506001016104a5565b50905090565b6000546040517f23b872dd00000000000000000000000000000000000000000000000000000000815273ffffffffffffffffffffffffffffffffffffffff9091169081906323b872dd9061069590339084908790600401610b29565b602060405180830381600087803b1580156106af57600080fd5b505af11580156106c3573d6000803e3d6000fd5b505050506040513d601f19601f820116820180604052506106e79190810190610a1b565b505050565b73ffffffffffffffffffffffffffffffffffffffff83166000908152600760209081526040808320815180830190925285825281830185905280546001810182559084529282902081518051929460020290910192610750928492909101906108e4565b50602082810151805161076992600185019201906108e4565b505050505050565b6002546103e88161077e57fe5b046004819055600380549091019055565b60005b60015481101561086d5760008181526006602090815260409182902080548351601f60026000196101006001861615020190931692909204918201849004840281018401909452808452606093928301828280156108315780601f1061080657610100808354040283529160200191610831565b820191906000526020600020905b81548152906001019060200180831161081457829003601f168201915b5050505050905061084181610870565b6005826040516108519190610aec565b9081526040519081900360200190206002015550600101610792565b50565b600080600254600014156108b05760006005846040516108909190610aec565b908152604051908190036020019020600101546103e80291506108de9050565b60006005846040516108c29190610aec565b9081526040519081900360200190206002015460045490039150505b92915050565b828054600181600116156101000203166002900490600052602060002090601f016020900481019282601f1061092557805160ff1916838001178555610952565b82800160010185558215610952579182015b82811115610952578251825591602001919060010190610937565b5061095e929150610983565b5090565b60405180606001604052806060815260200160008152602001600081525090565b61013d91905b8082111561095e5760008155600101610989565b600082601f8301126109ad578081fd5b813567ffffffffffffffff808211156109c4578283fd5b604051601f8301601f1916810160200182811182821017156109e4578485fd5b6040528281529250828483016020018610156109ff57600080fd5b8260208601602083013760006020848301015250505092915050565b600060208284031215610a2c578081fd5b81518015158114610a3b578182fd5b9392505050565b600060208284031215610a53578081fd5b813567ffffffffffffffff811115610a69578182fd5b610a758482850161099d565b949350505050565b60008060408385031215610a8f578081fd5b823567ffffffffffffffff811115610aa5578182fd5b610ab18582860161099d565b95602094909401359450505050565b60008151808452610ad8816020860160208601610c6c565b601f01601f19169290920160200192915050565b60008251610afe818460208701610c6c565b9190910192915050565b73ffffffffffffffffffffffffffffffffffffffff91909116815260200190565b73ffffffffffffffffffffffffffffffffffffffff9384168152919092166020820152604081019190915260600190565b6000602080830181845280855180835260408601915060408482028701019250838701855b82811015610bcc57603f198886030184528151805160608752610ba56060880182610ac0565b82890151888a01526040928301519290970191909152509285019290850190600101610b7f565b5092979650505050505050565b6000602080830181845280855180835260408601915060408482028701019250838701855b82811015610bcc57603f198886030184528151805160408752610c246040880182610ac0565b88830151915087810389890152610c3b8183610ac0565b97505050938601935090850190600101610bfe565b600060208252610a3b6020830184610ac0565b90815260200190565b60005b83811015610c87578181015183820152602001610c6f565b83811115610c96576000848401525b5050505056fea26469706673582212205bc95ac3c2cc281ceab40b7bb6135d9c239fede4901ae64d831aafcb0162331e64736f6c63430006000033",
  "source": "pragma solidity ^0.6.0;\npragma experimental ABIEncoderV2;\n\nimport './CadabraCoin.sol';\n\ncontract Marketplace {\n\n  struct itemStruct {\n    string item;\n    uint priceInUSD;\n    uint priceInCDBRA;\n  }\n\n  struct purchasedItemStruct {\n    string item;\n    string passage;\n  }\n\n  address public cadabraCoinAddress;\n  uint numberOfItems;\n  uint earningsInUSD;\n  uint totalCDBRADiscount;\n  uint currentCDBRADiscount;\n  mapping(string => itemStruct) private itemsAndPricesMapping;\n  mapping(uint => string) private itemNumberToItemName;\n  mapping(address => purchasedItemStruct[]) private addressToPurchases;\n\n  //address to item map expose a method\n\n  constructor(address _cadabraCoinAddress) public {\n    cadabraCoinAddress = _cadabraCoinAddress;\n\n    itemsAndPricesMapping[\"item1\"] = itemStruct({item: \"item1\", priceInUSD: 10, priceInCDBRA: 10 * 1000});\n    itemNumberToItemName[0] = \"item1\";\n\n    itemsAndPricesMapping[\"item2\"] = itemStruct({item: \"item2\", priceInUSD: 20, priceInCDBRA: 20 * 1000});\n    itemNumberToItemName[1] = \"item2\";\n\n    itemsAndPricesMapping[\"item3\"] = itemStruct({item: \"item3\", priceInUSD: 30, priceInCDBRA: 30 * 1000});\n    itemNumberToItemName[2] = \"item3\";\n\n    itemsAndPricesMapping[\"item4\"] = itemStruct({item: \"item4\", priceInUSD: 40, priceInCDBRA: 40 * 1000});\n    itemNumberToItemName[3] = \"item4\";\n\n    itemsAndPricesMapping[\"item5\"] = itemStruct({item: \"item5\", priceInUSD: 50, priceInCDBRA: 50 * 1000});\n    itemNumberToItemName[4] = \"item5\";\n\n    numberOfItems = 5;\n    earningsInUSD = 0;\n    totalCDBRADiscount = 0;\n    currentCDBRADiscount = 0;\n  }\n\n  function getNumberOfItems() public view returns (uint) {\n    return numberOfItems;\n  }\n\n  function getEarningsInUSD() public view returns (uint) {\n      return earningsInUSD;\n  }\n\n  //Get all items and their respective prices in USD and CDBRA\n  function getAllItemsAndPrices() public view returns (itemStruct[] memory) {\n    itemStruct[] memory allItemsAndPrices = new itemStruct[](numberOfItems);\n    for (uint i = 0; i < numberOfItems; i++) {\n        string memory itemName = itemNumberToItemName[i];\n        allItemsAndPrices[i] = itemsAndPricesMapping[itemName];\n    }\n    return allItemsAndPrices;\n  }\n\n  function addItem(string memory _item, uint _priceInUSD) public {\n    uint priceOfItemInCDBRA = (_priceInUSD * 1000) - totalCDBRADiscount;\n    itemsAndPricesMapping[_item] = itemStruct({item: _item, priceInUSD: _priceInUSD, priceInCDBRA: priceOfItemInCDBRA});\n    itemNumberToItemName[numberOfItems] = _item;\n    numberOfItems++;\n  }\n\n  function getUpdatedPriceOfItemInCDBRA(string memory _item) private view returns (uint) {\n    uint updatedPriceOfItemInCDBRA;\n    if(earningsInUSD == 0) {\n      uint priceOfItemInUSD = itemsAndPricesMapping[_item].priceInUSD;\n      updatedPriceOfItemInCDBRA = priceOfItemInUSD * 1000;\n    }\n    else {\n      uint mostRecentPriceOfItemInCDBRA = itemsAndPricesMapping[_item].priceInCDBRA;\n      //This formula ensures that as earnings rise, prices for items in terms of\n      //CDBRA fall, but at a decelerating rate. This produces asymptotic behavior\n      //ensuring that the price of an item never falls to 0 (or below 0)\n      updatedPriceOfItemInCDBRA = mostRecentPriceOfItemInCDBRA - currentCDBRADiscount;\n    }\n    return updatedPriceOfItemInCDBRA;\n  }\n\n  function updateCDBRADiscount() private {\n    currentCDBRADiscount = ((1 * 1000) / earningsInUSD);\n    //We keep track of totalCDBRADiscount to discount the CDBRA price of newly added items\n    //which did not have the opportunity to incrementally decrease their price as previous\n    //earnings increased\n    totalCDBRADiscount = totalCDBRADiscount + currentCDBRADiscount;\n  }\n\n  function purchaseItem(string memory _item) public returns (string memory) {\n    uint priceOfItemInUSD = itemsAndPricesMapping[_item].priceInUSD;\n    uint priceOfItemInCDBRA = itemsAndPricesMapping[_item].priceInCDBRA;\n    deductCDBRAFromPurchaserOfItem(priceOfItemInCDBRA);\n\n\n    addCustomer(msg.sender, _item, \"sample passage\");\n\n\n    //Increment marketplace earnings in USD\n    earningsInUSD = earningsInUSD + priceOfItemInUSD;\n    //Update all of the item prices in CDBRA now that earnings have been incremented\n    updateCDBRADiscount();\n    updateItemPricesInCDBRA();\n    return _item;\n  }\n\n  function addCustomer(address _address, string memory _item, string memory _passage) private {\n    addressToPurchases[_address].push(purchasedItemStruct({item: _item, passage: _passage}));\n  }\n\n  function getSenderPurchases() public view returns (purchasedItemStruct[] memory) {\n    return addressToPurchases[msg.sender];\n  }\n\n  function updateItemPricesInCDBRA() private {\n    for (uint i = 0; i < numberOfItems; i++) {\n        string memory itemName = itemNumberToItemName[i];\n        itemsAndPricesMapping[itemName].priceInCDBRA = getUpdatedPriceOfItemInCDBRA(itemName);\n    }\n  }\n\n  function deductCDBRAFromPurchaserOfItem(uint _priceOfItemInCDBRA) private {\n    CadabraCoin cadabraCoin = CadabraCoin(cadabraCoinAddress);\n    //TO DO: add check to require that the purchaser has enough CDBRA\n    //Decrement the purchaser's CDBRA balance\n    cadabraCoin.transferFrom(msg.sender, cadabraCoinAddress, _priceOfItemInCDBRA);\n  }\n}\n",
  "sourcePath": "/Users/doolaugh/Desktop/truffle-project/contracts/Marketplace.sol",
  "compiler": {
    "name": "solc",
    "version": "0.6.0+commit.26b70077.Emscripten.clang"
  },
  "schemaVersion": "3.3.2",
  "updatedAt": "2020-12-10T21:02:16.924Z",
  "networkType": "ethereum",
  "devdoc": {
    "methods": {}
  },
  "userdoc": {
    "methods": {}
  }
}