{
  "contractName": "Marketplace",
  "abi": [
    {
      "inputs": [
        {
          "internalType": "address",
          "name": "_cadabraCoinAddress",
          "type": "address"
        }
      ],
      "stateMutability": "nonpayable",
      "type": "constructor"
    },
    {
      "inputs": [],
      "name": "cadabraCoinAddress",
      "outputs": [
        {
          "internalType": "address",
          "name": "",
          "type": "address"
        }
      ],
      "stateMutability": "view",
      "type": "function",
      "constant": true
    },
    {
      "inputs": [],
      "name": "getNumberOfItems",
      "outputs": [
        {
          "internalType": "uint256",
          "name": "",
          "type": "uint256"
        }
      ],
      "stateMutability": "view",
      "type": "function",
      "constant": true
    },
    {
      "inputs": [],
      "name": "getEarningsInUSD",
      "outputs": [
        {
          "internalType": "uint256",
          "name": "",
          "type": "uint256"
        }
      ],
      "stateMutability": "view",
      "type": "function",
      "constant": true
    },
    {
      "inputs": [],
      "name": "getAllItemsAndPrices",
      "outputs": [
        {
          "components": [
            {
              "internalType": "string",
              "name": "item",
              "type": "string"
            },
            {
              "internalType": "string",
              "name": "author",
              "type": "string"
            },
            {
              "internalType": "uint256",
              "name": "priceInUSD",
              "type": "uint256"
            },
            {
              "internalType": "uint256",
              "name": "priceInCDBRA",
              "type": "uint256"
            }
          ],
          "internalType": "struct Marketplace.itemStruct[]",
          "name": "",
          "type": "tuple[]"
        }
      ],
      "stateMutability": "view",
      "type": "function",
      "constant": true
    },
    {
      "inputs": [
        {
          "internalType": "string",
          "name": "_item",
          "type": "string"
        },
        {
          "internalType": "string",
          "name": "_author",
          "type": "string"
        },
        {
          "internalType": "string",
          "name": "_passage",
          "type": "string"
        },
        {
          "internalType": "uint256",
          "name": "_priceInUSD",
          "type": "uint256"
        }
      ],
      "name": "addItem",
      "outputs": [],
      "stateMutability": "nonpayable",
      "type": "function"
    },
    {
      "inputs": [
        {
          "internalType": "string",
          "name": "_item",
          "type": "string"
        }
      ],
      "name": "purchaseItem",
      "outputs": [
        {
          "internalType": "string",
          "name": "",
          "type": "string"
        }
      ],
      "stateMutability": "nonpayable",
      "type": "function"
    },
    {
      "inputs": [],
      "name": "getSenderPurchases",
      "outputs": [
        {
          "components": [
            {
              "internalType": "string",
              "name": "item",
              "type": "string"
            },
            {
              "internalType": "string",
              "name": "passage",
              "type": "string"
            }
          ],
          "internalType": "struct Marketplace.purchasedItemStruct[]",
          "name": "",
          "type": "tuple[]"
        }
      ],
      "stateMutability": "view",
      "type": "function",
      "constant": true
    }
  ],
  "bytecode": "0x60806040523480156200001157600080fd5b506040516200211338038062002113833981016040819052620000349162000980565b60008054600160a060020a031916600160a060020a0383161790556040805160c081018252600b608082019081527f546865205377696d6d657200000000000000000000000000000000000000000060a0830152815281518083018352600c81527f4a6f686e20436865657665720000000000000000000000000000000000000000602080830191909152820152600a8183015261271060608201529051600590620000e09062000a02565b908152602001604051809103902060008201518160000190805190602001906200010c929190620008db565b506020828101518051620001279260018501920190620008db565b5060408281015160028301556060909201516003909101558051808201909152600b81527f546865205377696d6d6572000000000000000000000000000000000000000000602080830191825260008052600690529051620001ab917f54cdd369e4e8a8515e52ca72ec816c2101831ad1f18bf44102ed171459c9b4f891620008db565b50604051806102400160405280610214815260200162001c8e61021491396007604051620001d99062000a02565b90815260200160405180910390209080519060200190620001fc929190620008db565b506040805160c0810182526010608082019081527f546865204772656174204761747362790000000000000000000000000000000060a0830152815281518083018352601381527f462e2053636f7474204669747a676572616c6400000000000000000000000000602082810191909152820152601481830152614e20606082015290516005906200028e90620009d9565b90815260200160405180910390206000820151816000019080519060200190620002ba929190620008db565b506020828101518051620002d59260018501920190620008db565b5060408281015160028301556060909201516003909101558051808201909152601081527f5468652047726561742047617473627900000000000000000000000000000000602080830191825260016000526006905290516200035a917f3e5fec24aa4dc4e5aee2e025e51e1392c72a2500577559fae9665c6d52bd6a3191620008db565b50604051806101e001604052806101bd815260200162001ad16101bd913960076040516200038890620009d9565b90815260200160405180910390209080519060200190620003ab929190620008db565b506040805160c081018252600e608082019081527f46616872656e686569742034353100000000000000000000000000000000000060a0830152815281518083018352600c81527f5261792042726164627572790000000000000000000000000000000000000000602082810191909152820152601e81830152617530606082015290516005906200043d90620009b0565b9081526020016040518091039020600082015181600001908051906020019062000469929190620008db565b506020828101518051620004849260018501920190620008db565b506040828101516002808401919091556060909301516003909201919091558051808201909152600e81527f46616872656e6865697420343531000000000000000000000000000000000000602080830191825260009390935260069092525162000511917f8819ef417987f8ae7a81f42cdfb18815282fe989326fbff903d13cf0e03ace2991620008db565b50604051806101400160405280610105815260200162001926610105913960076040516200053f90620009b0565b9081526020016040518091039020908051906020019062000562929190620008db565b506040805160c0810182526015608082019081527f546f204b696c6c2061204d6f636b696e6762697264000000000000000000000060a0830152815281518083018352600a81527f486172706572204c656500000000000000000000000000000000000000000000602082810191909152820152602881830152619c4060608201529051600590620005f49062000a2b565b9081526020016040518091039020600082015181600001908051906020019062000620929190620008db565b5060208281015180516200063b9260018501920190620008db565b5060408281015160028301556060909201516003918201558151808301909252601582527f546f204b696c6c2061204d6f636b696e67626972640000000000000000000000602080840191825260009290925260069091529051620006c2917f75f96ab15d697e93042dc45b5c896c4b27e89bb6eaf39475c5c371cb2513f7d291620008db565b50604051806102a00160405280610271815260200162001ea261027191396007604051620006f09062000a2b565b9081526020016040518091039020908051906020019062000713929190620008db565b506040805160c081018252600f608082019081527f4f66204d69636520616e64204d656e000000000000000000000000000000000060a0830152815281518083018352600e81527f4a6f686e20537465696e6265636b00000000000000000000000000000000000060208281019190915282015260328183015261c35060608201529051600590620007a59062000a54565b90815260200160405180910390206000820151816000019080519060200190620007d1929190620008db565b506020828101518051620007ec9260018501920190620008db565b5060408281015160028301556060909201516003909101558051808201909152600f81527f4f66204d69636520616e64204d656e00000000000000000000000000000000006020808301918252600460005260069052905162000871917fc5069e24aaadb2addc3e52e868fcf3f4f8acf5a87e24300992fd4540c2a87eed91620008db565b506040518060e0016040528060a6815260200162001a2b60a6913960076040516200089c9062000a54565b90815260200160405180910390209080519060200190620008bf929190620008db565b5050600560015560006002819055600381905560045562000a7d565b828054600181600116156101000203166002900490600052602060002090601f016020900481019282601f106200091e57805160ff19168380011785556200094e565b828001600101855582156200094e579182015b828111156200094e57825182559160200191906001019062000931565b506200095c92915062000960565b5090565b6200097d91905b808211156200095c576000815560010162000967565b90565b60006020828403121562000992578081fd5b8151600160a060020a0381168114620009a9578182fd5b9392505050565b7f46616872656e68656974203435310000000000000000000000000000000000008152600e0190565b7f5468652047726561742047617473627900000000000000000000000000000000815260100190565b7f546865205377696d6d65720000000000000000000000000000000000000000008152600b0190565b7f546f204b696c6c2061204d6f636b696e67626972640000000000000000000000815260150190565b7f4f66204d69636520616e64204d656e00000000000000000000000000000000008152600f0190565b610e998062000a8d6000396000f3fe608060405234801561001057600080fd5b506004361061009a576000357c01000000000000000000000000000000000000000000000000000000009004806372f45bcd1161007857806372f45bcd146100e7578063730ef26914610107578063b4e004531461010f578063b76f2339146101245761009a565b806314c834a41461009f578063211a82aa146100bd5780636265db2f146100d2575b600080fd5b6100a7610139565b6040516100b49190610e2a565b60405180910390f35b6100c5610140565b6040516100b49190610da0565b6100e56100e0366004610be1565b6102d6565b005b6100fa6100f5366004610ba6565b6103d4565b6040516100b49190610e17565b6100a76104f9565b6101176104ff565b6040516100b49190610cb5565b61012c61051b565b6040516100b49190610d07565b6002545b90565b336000908152600860209081526040808320805482518185028101850190935280835260609492939192909184015b828210156102cd5760008481526020908190206040805160028681029093018054600181161561010002600019011693909304601f8101859004909402810160609081018352918101848152909384928491908401828280156102135780601f106101e857610100808354040283529160200191610213565b820191906000526020600020905b8154815290600101906020018083116101f657829003601f168201915b50505050508152602001600182018054600181600116156101000203166002900480601f0160208091040260200160405190810160405280929190818152602001828054600181600116156101000203166002900480156102b55780601f1061028a576101008083540402835291602001916102b5565b820191906000526020600020905b81548152906001019060200180831161029857829003601f168201915b5050505050815250508152602001906001019061016f565b50505050905090565b6000600354826103e8020390506040518060800160405280868152602001858152602001838152602001828152506005866040516103149190610c99565b9081526020016040518091039020600082015181600001908051906020019061033e929190610a41565b5060208281015180516103579260018501920190610a41565b506040820151816002015560608201518160030155905050826007866040516103809190610c99565b908152602001604051809103902090805190602001906103a1929190610a41565b50600154600090815260066020908152604090912086516103c492880190610a41565b5050600180548101905550505050565b606060006005836040516103e89190610c99565b9081526020016040518091039020600201549050600060058460405161040e9190610c99565b908152602001604051809103902060030154905061042b81610796565b6104d933856007876040516104409190610c99565b9081526040805160209281900383018120805460026001821615610100026000190190911604601f810185900485028301850190935282825290929091908301828280156104cf5780601f106104a4576101008083540402835291602001916104cf565b820191906000526020600020905b8154815290600101906020018083116104b257829003601f168201915b5050505050610849565b60028054830190556104e96108ce565b6104f16108ec565b509192915050565b60015490565b60005473ffffffffffffffffffffffffffffffffffffffff1681565b60608060015460405190808252806020026020018201604052801561055a57816020015b610547610abf565b81526020019060019003908161053f5790505b50905060005b6001548110156107905760008181526006602090815260409182902080548351601f60026000196101006001861615020190931692909204918201849004840281018401909452808452606093928301828280156105ff5780601f106105d4576101008083540402835291602001916105ff565b820191906000526020600020905b8154815290600101906020018083116105e257829003601f168201915b505050505090506005816040516106169190610c99565b9081526040805160209281900383018120805460026001821615610100026000190190911604601f8101859004909402820160a0908101909352608082018481529193909284929184918401828280156106b15780601f10610686576101008083540402835291602001916106b1565b820191906000526020600020905b81548152906001019060200180831161069457829003601f168201915b50505050508152602001600182018054600181600116156101000203166002900480601f0160208091040260200160405190810160405280929190818152602001828054600181600116156101000203166002900480156107535780601f1061072857610100808354040283529160200191610753565b820191906000526020600020905b81548152906001019060200180831161073657829003601f168201915b505050505081526020016002820154815260200160038201548152505083838151811061077c57fe5b602090810291909101015250600101610560565b50905090565b6000546040517f23b872dd00000000000000000000000000000000000000000000000000000000815273ffffffffffffffffffffffffffffffffffffffff9091169081906323b872dd906107f290339084908790600401610cd6565b602060405180830381600087803b15801561080c57600080fd5b505af1158015610820573d6000803e3d6000fd5b505050506040513d601f19601f820116820180604052506108449190810190610b7f565b505050565b73ffffffffffffffffffffffffffffffffffffffff831660009081526008602090815260408083208151808301909252858252818301859052805460018101825590845292829020815180519294600202909101926108ad92849290910190610a41565b5060208281015180516108c69260018501920190610a41565b505050505050565b6002546103e8816108db57fe5b046004819055600380549091019055565b60005b6001548110156109ca5760008181526006602090815260409182902080548351601f600260001961010060018616150201909316929092049182018490048402810184019094528084526060939283018282801561098e5780601f106109635761010080835404028352916020019161098e565b820191906000526020600020905b81548152906001019060200180831161097157829003601f168201915b5050505050905061099e816109cd565b6005826040516109ae9190610c99565b90815260405190819003602001902060030155506001016108ef565b50565b60008060025460001415610a0d5760006005846040516109ed9190610c99565b908152604051908190036020019020600201546103e8029150610a3b9050565b6000600584604051610a1f9190610c99565b9081526040519081900360200190206003015460045490039150505b92915050565b828054600181600116156101000203166002900490600052602060002090601f016020900481019282601f10610a8257805160ff1916838001178555610aaf565b82800160010185558215610aaf579182015b82811115610aaf578251825591602001919060010190610a94565b50610abb929150610ae7565b5090565b6040518060800160405280606081526020016060815260200160008152602001600081525090565b61013d91905b80821115610abb5760008155600101610aed565b600082601f830112610b11578081fd5b813567ffffffffffffffff80821115610b28578283fd5b604051601f8301601f191681016020018281118282101715610b48578485fd5b604052828152925082848301602001861015610b6357600080fd5b8260208601602083013760006020848301015250505092915050565b600060208284031215610b90578081fd5b81518015158114610b9f578182fd5b9392505050565b600060208284031215610bb7578081fd5b813567ffffffffffffffff811115610bcd578182fd5b610bd984828501610b01565b949350505050565b60008060008060808587031215610bf6578283fd5b843567ffffffffffffffff80821115610c0d578485fd5b610c1988838901610b01565b95506020870135915080821115610c2e578485fd5b610c3a88838901610b01565b94506040870135915080821115610c4f578384fd5b50610c5c87828801610b01565b949793965093946060013593505050565b60008151808452610c85816020860160208601610e33565b601f01601f19169290920160200192915050565b60008251610cab818460208701610e33565b9190910192915050565b73ffffffffffffffffffffffffffffffffffffffff91909116815260200190565b73ffffffffffffffffffffffffffffffffffffffff9384168152919092166020820152604081019190915260600190565b6000602080830181845280855180835260408601915060408482028701019250838701855b82811015610d9357603f198886030184528151805160808752610d526080880182610c6d565b88830151915087810389890152610d698183610c6d565b604084810151908a0152606093840151939098019290925250509285019290850190600101610d2c565b5092979650505050505050565b6000602080830181845280855180835260408601915060408482028701019250838701855b82811015610d9357603f198886030184528151805160408752610deb6040880182610c6d565b88830151915087810389890152610e028183610c6d565b97505050938601935090850190600101610dc5565b600060208252610b9f6020830184610c6d565b90815260200190565b60005b83811015610e4e578181015183820152602001610e36565b83811115610e5d576000848401525b5050505056fea2646970667358221220f3bb672fd6fda32914e5a93bef0b1dd58900e3e3b7868fd4046c470d95ba831064736f6c63430006000033426f6f6b732077657265206f6e6c79206f6e652074797065206f662072656365707461636c652077686572652077652073746f7265642061206c6f74206f66207468696e6773207765207765726520616672616964207765206d6967687420666f726765742e205468657265206973206e6f7468696e67206d61676963616c20696e207468656d2c20617420616c6c2e20546865206d61676963206973206f6e6c7920696e207768617420626f6f6b73207361792c20686f772074686579207374697463686564207468652070617463686573206f662074686520756e69766572736520746f67657468657220696e746f206f6e65206761726d656e7420666f722075732e41732068617070656e7320736f6d6574696d65732c2061206d6f6d656e7420736574746c656420616e6420686f766572656420616e642072656d61696e656420666f72206d756368206d6f7265207468616e2061206d6f6d656e742e20416e6420736f756e642073746f7070656420616e64206d6f76656d656e742073746f7070656420666f72206d7563682c206d756368206d6f7265207468616e2061206d6f6d656e742e416e642061732049207361742074686572652062726f6f64696e67206f6e20746865206f6c642c20756e6b6e6f776e20776f726c642c20492074686f75676874206f6620476174736279e280997320776f6e646572207768656e206865206669727374207069636b6564206f75742074686520677265656e206c696768742061742074686520656e64206f66204461697379e280997320646f636b2e2048652068616420636f6d652061206c6f6e672077617920746f207468697320626c7565206c61776e2c20616e642068697320647265616d206d7573742068617665207365656d656420736f20636c6f7365207468617420686520636f756c6420686172646c79206661696c20746f2067726173702069742e20486520646964206e6f74206b6e6f7720746861742069742077617320616c726561647920626568696e642068696d2c20736f6d657768657265206261636b20696e20746861742076617374206f6273637572697479206265796f6e642074686520636974792c20776865726520746865206461726b206669656c6473206f66207468652072657075626c696320726f6c6c6564206f6e20756e64657220746865206e696768742e5468656e2074686572652077617320612066696e65206e6f697365206f662072757368696e672077617465722066726f6d207468652063726f776e206f6620616e206f616b20617420686973206261636b2c206173206966206120737069676f7420746865726520686164206265656e207475726e65642e205468656e20746865206e6f697365206f6620666f756e7461696e732063616d652066726f6d207468652063726f776e73206f6620616c6c207468652074616c6c2074726565732e2057687920646964206865206c6f76652073746f726d732c20776861742077617320746865206d65616e696e67206f6620686973206578636974656d656e74207768656e2074686520646f6f7220737072616e67206f70656e20616e6420746865207261696e2077696e6420666c656420727564656c79207570207468652073746169722c2077687920686164207468652073696d706c65207461736b206f66207368757474696e67207468652077696e646f7773206f6620616e206f6c6420686f757365207365656d2066697474696e6720616e6420757267656e742c20776879206469642074686520666972737420776174657279206e6f746573206f6620612073746f726d2077696e64206861766520666f722068696d2074686520756e6d697374616b61626c6520736f756e64206f6620676f6f64206e6577732c2063686565722c20676c616420746964696e67733f41747469637573207361696420746f204a656d206f6e65206461792c20e2809c49e28099642072617468657220796f752073686f742061742074696e2063616e7320696e20746865206261636b20796172642c206275742049206b6e6f7720796f75e280996c6c20676f2061667465722062697264732e2053686f6f7420616c6c2074686520626c75656a61797320796f752077616e742c20696620796f752063616e2068697420e28098656d2c206275742072656d656d626572206974e280997320612073696e20746f206b696c6c2061206d6f636b696e67626972642ee2809d20546861742077617320746865206f6e6c792074696d65204920657665722068656172642041747469637573207361792069742077617320612073696e20746f20646f20736f6d657468696e672c20616e6420492061736b6564204d697373204d61756469652061626f75742069742e20e2809c596f757220666174686572e28099732072696768742ce2809d2073686520736169642e20e2809c4d6f636b696e67626972647320646f6ee280997420646f206f6e65207468696e6720627574206d616b65206d7573696320666f7220757320746f20656e6a6f792e205468657920646f6ee2809974206561742075702070656f706c65e28099732067617264656e732c20646f6ee2809974206e65737420696e20636f726e63726962732c207468657920646f6ee280997420646f206f6e65207468696e67206275742073696e6720746865697220686561727473206f757420666f722075732e2054686174e280997320776879206974e280997320612073696e20746f206b696c6c2061206d6f636b696e67626972642ee2809d",
  "source": "pragma solidity ^0.6.0;\npragma experimental ABIEncoderV2;\n\nimport './CadabraCoin.sol';\n\ncontract Marketplace {\n\n  struct itemStruct {\n    string item;\n    string author;\n    uint priceInUSD;\n    uint priceInCDBRA;\n  }\n\n  struct purchasedItemStruct {\n    string item;\n    string passage;\n  }\n\n  address public cadabraCoinAddress;\n  uint numberOfItems;\n  uint earningsInUSD;\n  uint totalCDBRADiscount;\n  uint currentCDBRADiscount;\n  mapping(string => itemStruct) private itemsAndPricesMapping;\n  mapping(uint => string) private itemNumberToItemName;\n  mapping(string => string) private itemToPassage;\n  mapping(address => purchasedItemStruct[]) private addressToPurchases;\n\n  constructor(address _cadabraCoinAddress) public {\n    cadabraCoinAddress = _cadabraCoinAddress;\n\n    itemsAndPricesMapping[\"The Swimmer\"] = itemStruct({item: \"The Swimmer\", author: \"John Cheever\", priceInUSD: 10, priceInCDBRA: 10 * 1000});\n    itemNumberToItemName[0] = \"The Swimmer\";\n    itemToPassage[\"The Swimmer\"] = \"Then there was a fine noise of rushing water from the crown of an oak at his back, as if a spigot there had been turned. Then the noise of fountains came from the crowns of all the tall trees. Why did he love storms, what was the meaning of his excitement when the door sprang open and the rain wind fled rudely up the stair, why had the simple task of shutting the windows of an old house seem fitting and urgent, why did the first watery notes of a storm wind have for him the unmistakable sound of good news, cheer, glad tidings?\";\n\n    itemsAndPricesMapping[\"The Great Gatsby\"] = itemStruct({item: \"The Great Gatsby\", author: \"F. Scott Fitzgerald\", priceInUSD: 20, priceInCDBRA: 20 * 1000});\n    itemNumberToItemName[1] = \"The Great Gatsby\";\n    itemToPassage[\"The Great Gatsby\"] = \"And as I sat there brooding on the old, unknown world, I thought of Gatsby’s wonder when he first picked out the green light at the end of Daisy’s dock. He had come a long way to this blue lawn, and his dream must have seemed so close that he could hardly fail to grasp it. He did not know that it was already behind him, somewhere back in that vast obscurity beyond the city, where the dark fields of the republic rolled on under the night.\";\n\n    itemsAndPricesMapping[\"Fahrenheit 451\"] = itemStruct({item: \"Fahrenheit 451\", author: \"Ray Bradbury\", priceInUSD: 30, priceInCDBRA: 30 * 1000});\n    itemNumberToItemName[2] = \"Fahrenheit 451\";\n    itemToPassage[\"Fahrenheit 451\"] = \"Books were only one type of receptacle where we stored a lot of things we were afraid we might forget. There is nothing magical in them, at all. The magic is only in what books say, how they stitched the patches of the universe together into one garment for us.\";\n\n    itemsAndPricesMapping[\"To Kill a Mockingbird\"] = itemStruct({item: \"To Kill a Mockingbird\", author: \"Harper Lee\", priceInUSD: 40, priceInCDBRA: 40 * 1000});\n    itemNumberToItemName[3] = \"To Kill a Mockingbird\";\n    itemToPassage[\"To Kill a Mockingbird\"] = \"Atticus said to Jem one day, “I’d rather you shot at tin cans in the back yard, but I know you’ll go after birds. Shoot all the bluejays you want, if you can hit ‘em, but remember it’s a sin to kill a mockingbird.” That was the only time I ever heard Atticus say it was a sin to do something, and I asked Miss Maudie about it. “Your father’s right,” she said. “Mockingbirds don’t do one thing but make music for us to enjoy. They don’t eat up people’s gardens, don’t nest in corncribs, they don’t do one thing but sing their hearts out for us. That’s why it’s a sin to kill a mockingbird.”\";\n\n    itemsAndPricesMapping[\"Of Mice and Men\"] = itemStruct({item: \"Of Mice and Men\", author: \"John Steinbeck\", priceInUSD: 50, priceInCDBRA: 50 * 1000});\n    itemNumberToItemName[4] = \"Of Mice and Men\";\n    itemToPassage[\"Of Mice and Men\"] = \"As happens sometimes, a moment settled and hovered and remained for much more than a moment. And sound stopped and movement stopped for much, much more than a moment.\";\n\n    numberOfItems = 5;\n    earningsInUSD = 0;\n    totalCDBRADiscount = 0;\n    currentCDBRADiscount = 0;\n  }\n\n  function getNumberOfItems() public view returns (uint) {\n    return numberOfItems;\n  }\n\n  function getEarningsInUSD() public view returns (uint) {\n      return earningsInUSD;\n  }\n\n  //Get all items and their respective prices in USD and CDBRA\n  function getAllItemsAndPrices() public view returns (itemStruct[] memory) {\n    itemStruct[] memory allItemsAndPrices = new itemStruct[](numberOfItems);\n    for (uint i = 0; i < numberOfItems; i++) {\n        string memory itemName = itemNumberToItemName[i];\n        allItemsAndPrices[i] = itemsAndPricesMapping[itemName];\n    }\n    return allItemsAndPrices;\n  }\n\n  function addItem(string memory _item, string memory _author, string memory _passage, uint _priceInUSD) public {\n    uint priceOfItemInCDBRA = (_priceInUSD * 1000) - totalCDBRADiscount;\n    itemsAndPricesMapping[_item] = itemStruct({item: _item, author: _author, priceInUSD: _priceInUSD, priceInCDBRA: priceOfItemInCDBRA});\n    itemToPassage[_item] = _passage;\n    itemNumberToItemName[numberOfItems] = _item;\n    numberOfItems++;\n  }\n\n  function getUpdatedPriceOfItemInCDBRA(string memory _item) private view returns (uint) {\n    uint updatedPriceOfItemInCDBRA;\n    if(earningsInUSD == 0) {\n      uint priceOfItemInUSD = itemsAndPricesMapping[_item].priceInUSD;\n      updatedPriceOfItemInCDBRA = priceOfItemInUSD * 1000;\n    }\n    else {\n      uint mostRecentPriceOfItemInCDBRA = itemsAndPricesMapping[_item].priceInCDBRA;\n      //This formula ensures that as earnings rise, prices for items in terms of\n      //CDBRA fall, but at a decelerating rate. This produces asymptotic behavior\n      //ensuring that the price of an item never falls to 0 (or below 0)\n      updatedPriceOfItemInCDBRA = mostRecentPriceOfItemInCDBRA - currentCDBRADiscount;\n    }\n    return updatedPriceOfItemInCDBRA;\n  }\n\n  function updateCDBRADiscount() private {\n    currentCDBRADiscount = ((1 * 1000) / earningsInUSD);\n    //We keep track of totalCDBRADiscount to discount the CDBRA price of newly added items\n    //which did not have the opportunity to incrementally decrease their price as previous\n    //earnings increased\n    totalCDBRADiscount = totalCDBRADiscount + currentCDBRADiscount;\n  }\n\n  function purchaseItem(string memory _item) public returns (string memory) {\n    uint priceOfItemInUSD = itemsAndPricesMapping[_item].priceInUSD;\n    uint priceOfItemInCDBRA = itemsAndPricesMapping[_item].priceInCDBRA;\n    deductCDBRAFromPurchaserOfItem(priceOfItemInCDBRA);\n    addCustomer(msg.sender, _item, itemToPassage[_item]);\n    //Increment marketplace earnings in USD\n    earningsInUSD = earningsInUSD + priceOfItemInUSD;\n    //Update all of the item prices in CDBRA now that earnings have been incremented\n    updateCDBRADiscount();\n    updateItemPricesInCDBRA();\n    return _item;\n  }\n\n  function addCustomer(address _address, string memory _item, string memory _passage) private {\n    addressToPurchases[_address].push(purchasedItemStruct({item: _item, passage: _passage}));\n  }\n\n  function getSenderPurchases() public view returns (purchasedItemStruct[] memory) {\n    return addressToPurchases[msg.sender];\n  }\n\n  function updateItemPricesInCDBRA() private {\n    for (uint i = 0; i < numberOfItems; i++) {\n        string memory itemName = itemNumberToItemName[i];\n        itemsAndPricesMapping[itemName].priceInCDBRA = getUpdatedPriceOfItemInCDBRA(itemName);\n    }\n  }\n\n  function deductCDBRAFromPurchaserOfItem(uint _priceOfItemInCDBRA) private {\n    CadabraCoin cadabraCoin = CadabraCoin(cadabraCoinAddress);\n    //TO DO: add check to require that the purchaser has enough CDBRA\n    //Decrement the purchaser's CDBRA balance\n    cadabraCoin.transferFrom(msg.sender, cadabraCoinAddress, _priceOfItemInCDBRA);\n  }\n}\n",
  "sourcePath": "/Users/doolaugh/Desktop/truffle-project/contracts/Marketplace.sol",
  "compiler": {
    "name": "solc",
    "version": "0.6.0+commit.26b70077.Emscripten.clang"
  },
  "schemaVersion": "3.3.2",
  "updatedAt": "2020-12-10T23:16:16.726Z",
  "networkType": "ethereum",
  "devdoc": {
    "methods": {}
  },
  "userdoc": {
    "methods": {}
  }
}