{
  "contractName": "Marketplace",
  "abi": [
    {
      "inputs": [
        {
          "internalType": "address",
          "name": "_cadabraCoinAddress",
          "type": "address"
        }
      ],
      "stateMutability": "nonpayable",
      "type": "constructor"
    },
    {
      "inputs": [],
      "name": "cadabraCoinAddress",
      "outputs": [
        {
          "internalType": "address",
          "name": "",
          "type": "address"
        }
      ],
      "stateMutability": "view",
      "type": "function",
      "constant": true
    },
    {
      "inputs": [],
      "name": "getNumberOfItems",
      "outputs": [
        {
          "internalType": "uint256",
          "name": "",
          "type": "uint256"
        }
      ],
      "stateMutability": "view",
      "type": "function",
      "constant": true
    },
    {
      "inputs": [],
      "name": "getEarningsInUSD",
      "outputs": [
        {
          "internalType": "uint256",
          "name": "",
          "type": "uint256"
        }
      ],
      "stateMutability": "view",
      "type": "function",
      "constant": true
    },
    {
      "inputs": [],
      "name": "getAllItemsAndPrices",
      "outputs": [
        {
          "components": [
            {
              "internalType": "string",
              "name": "item",
              "type": "string"
            },
            {
              "internalType": "uint256",
              "name": "priceInUSD",
              "type": "uint256"
            },
            {
              "internalType": "uint256",
              "name": "priceInCDBRA",
              "type": "uint256"
            }
          ],
          "internalType": "struct Marketplace.itemStruct[]",
          "name": "",
          "type": "tuple[]"
        }
      ],
      "stateMutability": "view",
      "type": "function",
      "constant": true
    },
    {
      "inputs": [
        {
          "internalType": "string",
          "name": "_item",
          "type": "string"
        },
        {
          "internalType": "uint256",
          "name": "_priceInUSD",
          "type": "uint256"
        }
      ],
      "name": "addItem",
      "outputs": [],
      "stateMutability": "nonpayable",
      "type": "function"
    },
    {
      "inputs": [
        {
          "internalType": "string",
          "name": "_item",
          "type": "string"
        }
      ],
      "name": "purchaseItem",
      "outputs": [
        {
          "internalType": "string",
          "name": "",
          "type": "string"
        }
      ],
      "stateMutability": "nonpayable",
      "type": "function"
    }
  ],
  "bytecode": "0x60806040523480156200001157600080fd5b506040516200112c3803806200112c833981016040819052620000349162000650565b60008054600160a060020a031916600160a060020a0383161790556040805160a0810182526005606082018181527f6974656d3100000000000000000000000000000000000000000000000000000060808401528252600a6020830152612710828401529151909190620000a890620006fb565b90815260200160405180910390206000820151816000019080519060200190620000d4929190620005ab565b5060208281015160018301556040928301516002909201919091558151808301909252600582527f6974656d3100000000000000000000000000000000000000000000000000000082820190815260008052600690915290516200015a917f54cdd369e4e8a8515e52ca72ec816c2101831ad1f18bf44102ed171459c9b4f891620005ab565b506040805160a0810182526005606082018181527f6974656d320000000000000000000000000000000000000000000000000000006080840152825260146020830152614e20828401529151909190620001b490620006d2565b90815260200160405180910390206000820151816000019080519060200190620001e0929190620005ab565b506020828101516001808401919091556040938401516002909301929092558251808401909352600583527f6974656d320000000000000000000000000000000000000000000000000000008382019081526000929092526006905290516200026b917f3e5fec24aa4dc4e5aee2e025e51e1392c72a2500577559fae9665c6d52bd6a3191620005ab565b506040805160a0810182526005606082018181527f6974656d3300000000000000000000000000000000000000000000000000000060808401528252601e6020830152617530828401529151909190620002c59062000724565b90815260200160405180910390206000820151816000019080519060200190620002f1929190620005ab565b5060208281015160018301556040928301516002928301558251808401909352600583527f6974656d3300000000000000000000000000000000000000000000000000000083820190815260009290925260069052905162000375917f8819ef417987f8ae7a81f42cdfb18815282fe989326fbff903d13cf0e03ace2991620005ab565b506040805160a0810182526005606082018181527f6974656d340000000000000000000000000000000000000000000000000000006080840152825260286020830152619c40828401529151909190620003cf9062000680565b90815260200160405180910390206000820151816000019080519060200190620003fb929190620005ab565b5060208281015160018301556040928301516002909201919091558151808301909252600582527f6974656d3400000000000000000000000000000000000000000000000000000082820190815260036000526006909152905162000482917f75f96ab15d697e93042dc45b5c896c4b27e89bb6eaf39475c5c371cb2513f7d291620005ab565b506040805160a0810182526005606082018181527f6974656d35000000000000000000000000000000000000000000000000000000608084015282526032602083015261c350828401529151909190620004dc90620006a9565b9081526020016040518091039020600082015181600001908051906020019062000508929190620005ab565b5060208281015160018301556040928301516002909201919091558151808301909252600582527f6974656d350000000000000000000000000000000000000000000000000000008282019081526004600052600690915290516200058f917fc5069e24aaadb2addc3e52e868fcf3f4f8acf5a87e24300992fd4540c2a87eed91620005ab565b505060056001556000600281905560038190556004556200074d565b828054600181600116156101000203166002900490600052602060002090601f016020900481019282601f10620005ee57805160ff19168380011785556200061e565b828001600101855582156200061e579182015b828111156200061e57825182559160200191906001019062000601565b506200062c92915062000630565b5090565b6200064d91905b808211156200062c576000815560010162000637565b90565b60006020828403121562000662578081fd5b8151600160a060020a038116811462000679578182fd5b9392505050565b7f6974656d34000000000000000000000000000000000000000000000000000000815260050190565b7f6974656d35000000000000000000000000000000000000000000000000000000815260050190565b7f6974656d32000000000000000000000000000000000000000000000000000000815260050190565b7f6974656d31000000000000000000000000000000000000000000000000000000815260050190565b7f6974656d33000000000000000000000000000000000000000000000000000000815260050190565b6109cf806200075d6000396000f3fe608060405234801561001057600080fd5b506004361061007e577c0100000000000000000000000000000000000000000000000000000000600035046314c834a4811461008357806362d6bbdf146100a157806372f45bcd146100b6578063730ef269146100d6578063b4e00453146100de578063b76f2339146100f3575b600080fd5b61008b610108565b6040516100989190610960565b60405180910390f35b6100b46100af3660046107f1565b61010f565b005b6100c96100c43660046107b6565b6101c0565b604051610098919061094d565b61008b610237565b6100e661023d565b604051610098919061087c565b6100fb610259565b60405161009891906108ce565b6002545b90565b6000600354826103e8020390506040518060600160405280848152602001838152602001828152506005846040516101479190610860565b90815260200160405180910390206000820151816000019080519060200190610171929190610658565b5060208201518160010155604082015181600201559050508260066000600154815260200190815260200160002090805190602001906101b2929190610658565b505060018054810190555050565b606060006005836040516101d49190610860565b908152602001604051809103902060010154905060006005846040516101fa9190610860565b908152602001604051809103902060020154905061021781610432565b60028054830190556102276104e5565b61022f610503565b509192915050565b60015490565b60005473ffffffffffffffffffffffffffffffffffffffff1681565b60608060015460405190808252806020026020018201604052801561029857816020015b6102856106d6565b81526020019060019003908161027d5790505b50905060005b60015481101561042c5760008181526006602090815260409182902080548351601f600260001961010060018616150201909316929092049182018490048402810184019094528084526060939283018282801561033d5780601f106103125761010080835404028352916020019161033d565b820191906000526020600020905b81548152906001019060200180831161032057829003601f168201915b505050505090506005816040516103549190610860565b9081526040805160209281900383018120805460026001821615610100026000190190911604601f810185900490940282016080908101909352606082018481529193909284929184918401828280156103ef5780601f106103c4576101008083540402835291602001916103ef565b820191906000526020600020905b8154815290600101906020018083116103d257829003601f168201915b505050505081526020016001820154815260200160028201548152505083838151811061041857fe5b60209081029190910101525060010161029e565b50905090565b6000546040517f23b872dd00000000000000000000000000000000000000000000000000000000815273ffffffffffffffffffffffffffffffffffffffff9091169081906323b872dd9061048e9033908490879060040161089d565b602060405180830381600087803b1580156104a857600080fd5b505af11580156104bc573d6000803e3d6000fd5b505050506040513d601f19601f820116820180604052506104e0919081019061078f565b505050565b6002546103e8816104f257fe5b046004819055600380549091019055565b60005b6001548110156105e15760008181526006602090815260409182902080548351601f60026000196101006001861615020190931692909204918201849004840281018401909452808452606093928301828280156105a55780601f1061057a576101008083540402835291602001916105a5565b820191906000526020600020905b81548152906001019060200180831161058857829003601f168201915b505050505090506105b5816105e4565b6005826040516105c59190610860565b9081526040519081900360200190206002015550600101610506565b50565b600080600254600014156106245760006005846040516106049190610860565b908152604051908190036020019020600101546103e80291506106529050565b60006005846040516106369190610860565b9081526040519081900360200190206002015460045490039150505b92915050565b828054600181600116156101000203166002900490600052602060002090601f016020900481019282601f1061069957805160ff19168380011785556106c6565b828001600101855582156106c6579182015b828111156106c65782518255916020019190600101906106ab565b506106d29291506106f7565b5090565b60405180606001604052806060815260200160008152602001600081525090565b61010c91905b808211156106d257600081556001016106fd565b600082601f830112610721578081fd5b813567ffffffffffffffff80821115610738578283fd5b604051601f8301601f191681016020018281118282101715610758578485fd5b60405282815292508284830160200186101561077357600080fd5b8260208601602083013760006020848301015250505092915050565b6000602082840312156107a0578081fd5b815180151581146107af578182fd5b9392505050565b6000602082840312156107c7578081fd5b813567ffffffffffffffff8111156107dd578182fd5b6107e984828501610711565b949350505050565b60008060408385031215610803578081fd5b823567ffffffffffffffff811115610819578182fd5b61082585828601610711565b95602094909401359450505050565b6000815180845261084c816020860160208601610969565b601f01601f19169290920160200192915050565b60008251610872818460208701610969565b9190910192915050565b73ffffffffffffffffffffffffffffffffffffffff91909116815260200190565b73ffffffffffffffffffffffffffffffffffffffff9384168152919092166020820152604081019190915260600190565b6000602080830181845280855180835260408601915060408482028701019250838701855b8281101561094057603f1988860301845281518051606087526109196060880182610834565b82890151888a015260409283015192909701919091525092850192908501906001016108f3565b5092979650505050505050565b6000602082526107af6020830184610834565b90815260200190565b60005b8381101561098457818101518382015260200161096c565b83811115610993576000848401525b5050505056fea264697066735822122068114014038d88537e60b0e4f2073fba3431b4fbb7a02107ddebfc8493cffb6f64736f6c63430006000033",
  "source": "pragma solidity ^0.6.0;\npragma experimental ABIEncoderV2;\n\nimport './CadabraCoin.sol';\n\ncontract Marketplace {\n\n  struct itemStruct {\n    string item;\n    uint priceInUSD;\n    uint priceInCDBRA;\n  }\n\n  address public cadabraCoinAddress;\n  uint numberOfItems;\n  uint earningsInUSD;\n  uint totalCDBRADiscount;\n  uint currentCDBRADiscount;\n  mapping(string => itemStruct) private itemsAndPricesMapping;\n  mapping(uint => string) private itemNumberToItemName;\n\n  constructor(address _cadabraCoinAddress) public {\n    cadabraCoinAddress = _cadabraCoinAddress;\n\n    itemsAndPricesMapping[\"item1\"] = itemStruct({item: \"item1\", priceInUSD: 10, priceInCDBRA: 10 * 1000});\n    itemNumberToItemName[0] = \"item1\";\n\n    itemsAndPricesMapping[\"item2\"] = itemStruct({item: \"item2\", priceInUSD: 20, priceInCDBRA: 20 * 1000});\n    itemNumberToItemName[1] = \"item2\";\n\n    itemsAndPricesMapping[\"item3\"] = itemStruct({item: \"item3\", priceInUSD: 30, priceInCDBRA: 30 * 1000});\n    itemNumberToItemName[2] = \"item3\";\n\n    itemsAndPricesMapping[\"item4\"] = itemStruct({item: \"item4\", priceInUSD: 40, priceInCDBRA: 40 * 1000});\n    itemNumberToItemName[3] = \"item4\";\n\n    itemsAndPricesMapping[\"item5\"] = itemStruct({item: \"item5\", priceInUSD: 50, priceInCDBRA: 50 * 1000});\n    itemNumberToItemName[4] = \"item5\";\n\n    numberOfItems = 5;\n    earningsInUSD = 0;\n    totalCDBRADiscount = 0;\n    currentCDBRADiscount = 0;\n  }\n\n  function getNumberOfItems() public view returns (uint) {\n    return numberOfItems;\n  }\n\n  function getEarningsInUSD() public view returns (uint) {\n      return earningsInUSD;\n  }\n\n  //Get all items and their respective prices in USD and CDBRA\n  function getAllItemsAndPrices() public view returns (itemStruct[] memory) {\n    itemStruct[] memory allItemsAndPrices = new itemStruct[](numberOfItems);\n    for (uint i = 0; i < numberOfItems; i++) {\n        string memory itemName = itemNumberToItemName[i];\n        allItemsAndPrices[i] = itemsAndPricesMapping[itemName];\n    }\n    return allItemsAndPrices;\n  }\n\n  function addItem(string memory _item, uint _priceInUSD) public {\n    uint priceOfItemInCDBRA = (_priceInUSD * 1000) - totalCDBRADiscount;\n    itemsAndPricesMapping[_item] = itemStruct({item: _item, priceInUSD: _priceInUSD, priceInCDBRA: priceOfItemInCDBRA});\n    itemNumberToItemName[numberOfItems] = _item;\n    numberOfItems++;\n  }\n\n  function getUpdatedPriceOfItemInCDBRA(string memory _item) private view returns (uint) {\n    uint updatedPriceOfItemInCDBRA;\n    if(earningsInUSD == 0) {\n      uint priceOfItemInUSD = itemsAndPricesMapping[_item].priceInUSD;\n      updatedPriceOfItemInCDBRA = priceOfItemInUSD * 1000;\n    }\n    else {\n      uint mostRecentPriceOfItemInCDBRA = itemsAndPricesMapping[_item].priceInCDBRA;\n      //This formula ensures that as earnings rise, prices for items in terms of\n      //CDBRA fall, but at a decelerating rate. This produces asymptotic behavior\n      //ensuring that the price of an item never falls to 0 (or below 0)\n      updatedPriceOfItemInCDBRA = mostRecentPriceOfItemInCDBRA - currentCDBRADiscount;\n    }\n    return updatedPriceOfItemInCDBRA;\n  }\n\n  function updateCDBRADiscount() private {\n    currentCDBRADiscount = ((1 * 1000) / earningsInUSD);\n    //We keep track of totalCDBRADiscount to discount the CDBRA price of newly added items\n    //which did not have the opportunity to incrementally decrease their price as previous\n    //earnings increased\n    totalCDBRADiscount = totalCDBRADiscount + currentCDBRADiscount;\n  }\n\n  function purchaseItem(string memory _item) public returns (string memory) {\n    uint priceOfItemInUSD = itemsAndPricesMapping[_item].priceInUSD;\n    uint priceOfItemInCDBRA = itemsAndPricesMapping[_item].priceInCDBRA;\n    deductCDBRAFromPurchaserOfItem(priceOfItemInCDBRA);\n    //Increment marketplace earnings in USD\n    earningsInUSD = earningsInUSD + priceOfItemInUSD;\n    //Update all of the item prices in CDBRA now that earnings have been incremented\n    updateCDBRADiscount();\n    updateItemPricesInCDBRA();\n    return _item;\n  }\n\n  function updateItemPricesInCDBRA() private {\n    for (uint i = 0; i < numberOfItems; i++) {\n        string memory itemName = itemNumberToItemName[i];\n        itemsAndPricesMapping[itemName].priceInCDBRA = getUpdatedPriceOfItemInCDBRA(itemName);\n    }\n  }\n\n  function deductCDBRAFromPurchaserOfItem(uint _priceOfItemInCDBRA) private {\n    CadabraCoin cadabraCoin = CadabraCoin(cadabraCoinAddress);\n    //TO DO: add check to require that the purchaser has enough CDBRA\n    //Decrement the purchaser's CDBRA balance\n    cadabraCoin.transferFrom(msg.sender, cadabraCoinAddress, _priceOfItemInCDBRA);\n  }\n}\n",
  "sourcePath": "/Users/doolaugh/Desktop/truffle-project/contracts/Marketplace.sol",
  "compiler": {
    "name": "solc",
    "version": "0.6.0+commit.26b70077.Emscripten.clang"
  },
  "schemaVersion": "3.3.2",
  "updatedAt": "2020-12-10T20:00:27.234Z",
  "networkType": "ethereum",
  "devdoc": {
    "methods": {}
  },
  "userdoc": {
    "methods": {}
  }
}