{
  "contractName": "Marketplace",
  "abi": [
    {
      "inputs": [],
      "stateMutability": "nonpayable",
      "type": "constructor"
    },
    {
      "inputs": [],
      "name": "getNumberOfItems",
      "outputs": [
        {
          "internalType": "uint256",
          "name": "",
          "type": "uint256"
        }
      ],
      "stateMutability": "view",
      "type": "function",
      "constant": true
    },
    {
      "inputs": [],
      "name": "getEarningsInUSD",
      "outputs": [
        {
          "internalType": "uint256",
          "name": "",
          "type": "uint256"
        }
      ],
      "stateMutability": "view",
      "type": "function",
      "constant": true
    },
    {
      "inputs": [],
      "name": "getAllItemsAndPrices",
      "outputs": [
        {
          "components": [
            {
              "internalType": "string",
              "name": "item",
              "type": "string"
            },
            {
              "internalType": "uint256",
              "name": "price",
              "type": "uint256"
            }
          ],
          "internalType": "struct Marketplace.itemStruct[]",
          "name": "",
          "type": "tuple[]"
        }
      ],
      "stateMutability": "view",
      "type": "function",
      "constant": true
    },
    {
      "inputs": [],
      "name": "getMyTokenAddress",
      "outputs": [
        {
          "internalType": "address",
          "name": "",
          "type": "address"
        }
      ],
      "stateMutability": "view",
      "type": "function",
      "constant": true
    },
    {
      "inputs": [
        {
          "internalType": "address",
          "name": "_myTokenAddress",
          "type": "address"
        }
      ],
      "name": "setMyTokenAddress",
      "outputs": [],
      "stateMutability": "nonpayable",
      "type": "function"
    },
    {
      "inputs": [
        {
          "internalType": "string",
          "name": "_item",
          "type": "string"
        },
        {
          "internalType": "uint256",
          "name": "_price",
          "type": "uint256"
        }
      ],
      "name": "addItem",
      "outputs": [],
      "stateMutability": "nonpayable",
      "type": "function"
    },
    {
      "inputs": [
        {
          "internalType": "string",
          "name": "_item",
          "type": "string"
        }
      ],
      "name": "getPriceOfItemInMTK",
      "outputs": [
        {
          "internalType": "uint256",
          "name": "",
          "type": "uint256"
        }
      ],
      "stateMutability": "view",
      "type": "function",
      "constant": true
    },
    {
      "inputs": [
        {
          "internalType": "string",
          "name": "_item",
          "type": "string"
        }
      ],
      "name": "purchaseItem",
      "outputs": [
        {
          "internalType": "string",
          "name": "",
          "type": "string"
        }
      ],
      "stateMutability": "nonpayable",
      "type": "function"
    }
  ],
  "bytecode": "0x60806040523480156200001157600080fd5b506040805160808101825260058183019081527f6974656d3100000000000000000000000000000000000000000000000000000060608301528152600a602082015290516003906200006390620006d2565b908152602001604051809103902060008201518160000190805190602001906200008f929190620005b2565b50602082015181600101559050506127106005604051620000b090620006d2565b908152604080519182900360209081018320939093558181019052600581527f6974656d31000000000000000000000000000000000000000000000000000000818301908152600080526004909252516200012d917f17ef568e3e12ab5b9c7254a8d58478811de00f9e6eb34345acd53bf8fd09d3ec91620005b2565b506040805160808101825260058183019081527f6974656d32000000000000000000000000000000000000000000000000000000606083015281526014602082015290516003906200017f90620006a9565b90815260200160405180910390206000820151816000019080519060200190620001ab929190620005b2565b5060208201518160010155905050614e206005604051620001cc90620006a9565b908152604080519182900360209081018320939093558181019052600581527f6974656d3200000000000000000000000000000000000000000000000000000081830190815260016000526004909252516200024a917fabd6e7cb50984ff9c2f3e18a2660c3353dadf4e3291deeb275dae2cd1e44fe0591620005b2565b506040805160808101825260058183019081527f6974656d3300000000000000000000000000000000000000000000000000000060608301528152601e602082015290516003906200029c90620006fb565b90815260200160405180910390206000820151816000019080519060200190620002c8929190620005b2565b50602082015181600101559050506175306005604051620002e990620006fb565b908152604080519182900360209081018320939093558181019052600581527f6974656d33000000000000000000000000000000000000000000000000000000818301908152600260005260049092525162000367917f91da3fd0782e51c6b3986e9e672fd566868e71f3dbc2d6c2cd6fbb3e361af2a791620005b2565b506040805160808101825260058183019081527f6974656d3400000000000000000000000000000000000000000000000000000060608301528152602860208201529051600390620003b99062000657565b90815260200160405180910390206000820151816000019080519060200190620003e5929190620005b2565b5060208201518160010155905050619c406005604051620004069062000657565b908152604080519182900360209081018320939093558181019052600581527f6974656d34000000000000000000000000000000000000000000000000000000818301908152600360005260049092525162000484917f2e174c10e159ea99b867ce3205125c24a42d128804e4070ed6fcc8cc98166aa091620005b2565b506040805160808101825260058183019081527f6974656d3500000000000000000000000000000000000000000000000000000060608301528152603260208201529051600390620004d69062000680565b9081526020016040518091039020600082015181600001908051906020019062000502929190620005b2565b506020820151816001015590505061c3506005604051620005239062000680565b908152604080519182900360209081018320939093558181019052600581527f6974656d350000000000000000000000000000000000000000000000000000008183019081526004600081905290925251620005a1917f1a1e6821cde7d0159c0d293177871e09677b4e42307c7db3ba94f8648a5a050f91620005b2565b506005600155600060025562000724565b828054600181600116156101000203166002900490600052602060002090601f016020900481019282601f10620005f557805160ff191683800117855562000625565b8280016001018555821562000625579182015b828111156200062557825182559160200191906001019062000608565b506200063392915062000637565b5090565b6200065491905b808211156200063357600081556001016200063e565b90565b7f6974656d34000000000000000000000000000000000000000000000000000000815260050190565b7f6974656d35000000000000000000000000000000000000000000000000000000815260050190565b7f6974656d32000000000000000000000000000000000000000000000000000000815260050190565b7f6974656d31000000000000000000000000000000000000000000000000000000815260050190565b7f6974656d33000000000000000000000000000000000000000000000000000000815260050190565b61096b80620007346000396000f3fe608060405234801561001057600080fd5b50600436106100a5576000357c010000000000000000000000000000000000000000000000000000000090048063a0489dcc11610078578063a0489dcc14610105578063b506abba14610118578063b76f23391461012d578063ed3df8df14610142576100a5565b806314c834a4146100aa57806362d6bbdf146100c857806372f45bcd146100dd578063730ef269146100fd575b600080fd5b6100b2610155565b6040516100bf91906108fc565b60405180910390f35b6100db6100d6366004610797565b61015c565b005b6100f06100eb36600461075c565b61020e565b6040516100bf91906108e9565b6100b261027e565b6100b261011336600461075c565b610284565b610120610300565b6040516100bf9190610822565b61013561031c565b6040516100bf9190610874565b6100db610150366004610708565b6104e9565b6002545b90565b6040518060400160405280838152602001828152506003836040516101819190610806565b908152602001604051809103902060008201518160000190805190602001906101ab9291906105d8565b5060208201518160010155905050806103e8026005836040516101ce9190610806565b908152604080516020928190038301902092909255600154600090815260048252919091208351610201928501906105d8565b5050600180548101905550565b606060006003836040516102229190610806565b9081526020016040518091039020600101549050600061024184610284565b905061024c81610525565b8060058560405161025d9190610806565b90815260405190819003602001902055506002805490910190555080919050565b60015490565b6000806003836040516102979190610806565b90815260200160405180910390206001015490506000600254600014156102c357506103e881026102f9565b60006005856040516102d59190610806565b90815260200160405180910390205490506002546103e8816102f357fe5b04900390505b9392505050565b60005473ffffffffffffffffffffffffffffffffffffffff1690565b60608060015460405190808252806020026020018201604052801561035b57816020015b610348610656565b8152602001906001900390816103405790505b50905060005b6001548110156104e35760008181526004602090815260409182902080548351601f60026000196101006001861615020190931692909204918201849004840281018401909452808452606093928301828280156104005780601f106103d557610100808354040283529160200191610400565b820191906000526020600020905b8154815290600101906020018083116103e357829003601f168201915b505050505090506003816040516104179190610806565b9081526040805160209281900383018120805460026001821615610100026000190190911604601f81018590049094028201606090810184529282018481529193909284929184918401828280156104b05780601f10610485576101008083540402835291602001916104b0565b820191906000526020600020905b81548152906001019060200180831161049357829003601f168201915b505050505081526020016001820154815250508383815181106104cf57fe5b602090810291909101015250600101610361565b50905090565b6000805473ffffffffffffffffffffffffffffffffffffffff191673ffffffffffffffffffffffffffffffffffffffff92909216919091179055565b6000546040517f23b872dd00000000000000000000000000000000000000000000000000000000815273ffffffffffffffffffffffffffffffffffffffff9091169081906323b872dd9061058190339084908790600401610843565b602060405180830381600087803b15801561059b57600080fd5b505af11580156105af573d6000803e3d6000fd5b505050506040513d601f19601f820116820180604052506105d3919081019061073c565b505050565b828054600181600116156101000203166002900490600052602060002090601f016020900481019282601f1061061957805160ff1916838001178555610646565b82800160010185558215610646579182015b8281111561064657825182559160200191906001019061062b565b50610652929150610670565b5090565b604051806040016040528060608152602001600081525090565b61015991905b808211156106525760008155600101610676565b600082601f83011261069a578081fd5b813567ffffffffffffffff808211156106b1578283fd5b604051601f8301601f1916810160200182811182821017156106d1578485fd5b6040528281529250828483016020018610156106ec57600080fd5b8260208601602083013760006020848301015250505092915050565b600060208284031215610719578081fd5b813573ffffffffffffffffffffffffffffffffffffffff811681146102f9578182fd5b60006020828403121561074d578081fd5b815180151581146102f9578182fd5b60006020828403121561076d578081fd5b813567ffffffffffffffff811115610783578182fd5b61078f8482850161068a565b949350505050565b600080604083850312156107a9578081fd5b823567ffffffffffffffff8111156107bf578182fd5b6107cb8582860161068a565b95602094909401359450505050565b600081518084526107f2816020860160208601610905565b601f01601f19169290920160200192915050565b60008251610818818460208701610905565b9190910192915050565b73ffffffffffffffffffffffffffffffffffffffff91909116815260200190565b73ffffffffffffffffffffffffffffffffffffffff9384168152919092166020820152604081019190915260600190565b6000602080830181845280855180835260408601915060408482028701019250838701855b828110156108dc57603f1988860301845281518051604087526108bf60408801826107da565b918801519688019690965294509285019290850190600101610899565b5092979650505050505050565b6000602082526102f960208301846107da565b90815260200190565b60005b83811015610920578181015183820152602001610908565b8381111561092f576000848401525b5050505056fea2646970667358221220c5417ed0fc4af293b234b84293497ea239ad1655fe20c1d9b9ac3f7054cb94ce64736f6c63430006000033",
  "source": "pragma solidity ^0.6.0;\npragma experimental ABIEncoderV2;\n\nimport './MyToken.sol';\n\ncontract Marketplace {\n\n  struct itemStruct {\n    string item;\n    uint price;\n  }\n\n  address myTokenAddress;\n  uint numberOfItems;\n  uint earningsInUSD;\n  mapping(string => itemStruct) private itemsAndPricesMapping;\n  mapping(uint => string) private itemNumberToItemName;\n  mapping(string => uint) private itemToMostRecentPriceInMTK;\n\n  constructor() public {\n\n    itemsAndPricesMapping[\"item1\"] = itemStruct({item: \"item1\", price: 10});\n    itemToMostRecentPriceInMTK[\"item1\"] = 10 * 1000;\n    itemNumberToItemName[0] = \"item1\";\n\n    itemsAndPricesMapping[\"item2\"] = itemStruct({item: \"item2\", price: 20});\n    itemToMostRecentPriceInMTK[\"item2\"] = 20 * 1000;\n    itemNumberToItemName[1] = \"item2\";\n\n    itemsAndPricesMapping[\"item3\"] = itemStruct({item: \"item3\", price: 30});\n    itemToMostRecentPriceInMTK[\"item3\"] = 30 * 1000;\n    itemNumberToItemName[2] = \"item3\";\n\n    itemsAndPricesMapping[\"item4\"] = itemStruct({item: \"item4\", price: 40});\n    itemToMostRecentPriceInMTK[\"item4\"] = 40 * 1000;\n    itemNumberToItemName[3] = \"item4\";\n\n    itemsAndPricesMapping[\"item5\"] = itemStruct({item: \"item5\", price: 50});\n    itemToMostRecentPriceInMTK[\"item5\"] = 50 * 1000;\n    itemNumberToItemName[4] = \"item5\";\n\n    numberOfItems = 5;\n    earningsInUSD = 0;\n  }\n\n  function getNumberOfItems() public view returns (uint) {\n    return numberOfItems;\n  }\n\n  function getEarningsInUSD() public view returns (uint) {\n      return earningsInUSD;\n  }\n\n  //get all items and prices as an array of itemStructs\n  function getAllItemsAndPrices() public view returns (itemStruct[] memory) {\n    itemStruct[] memory allItemsAndPrices = new itemStruct[](numberOfItems);\n    for (uint i = 0; i < numberOfItems; i++) {\n        string memory itemName = itemNumberToItemName[i];\n        allItemsAndPrices[i] = itemsAndPricesMapping[itemName];\n    }\n    return allItemsAndPrices;\n  }\n\n  function getMyTokenAddress() public view returns (address) {\n    return myTokenAddress;\n  }\n\n  function setMyTokenAddress(address _myTokenAddress) public {\n    myTokenAddress = _myTokenAddress;\n  }\n\n  function addItem(string memory _item, uint _price) public {\n    itemsAndPricesMapping[_item] = itemStruct({item: _item, price: _price});\n    itemToMostRecentPriceInMTK[_item] = _price * 1000;\n    itemNumberToItemName[numberOfItems] = _item;\n    numberOfItems++;\n  }\n\n  function getPriceOfItemInMTK(string memory _item) public view returns (uint) {\n    uint priceOfItemInUSD = itemsAndPricesMapping[_item].price;\n    uint priceOfItemInMTK;\n    if(earningsInUSD == 0) {\n      priceOfItemInMTK = priceOfItemInUSD * 1000;\n    }\n    else {\n      uint mostRecentPriceInMTK = itemToMostRecentPriceInMTK[_item];\n      //this formula ensures that as earnings rise, prices for items in terms of\n      //MTK fall, but at a decelerating rate. This produces asymptotic behavior\n      //ensuring that the price of an item never falls to 0 (or below 0)\n      priceOfItemInMTK = mostRecentPriceInMTK - ((1 * 1000) / earningsInUSD);\n    }\n    return priceOfItemInMTK;\n  }\n\n  function purchaseItem(string memory _item) public returns (string memory) {\n    uint priceOfItemInUSD = itemsAndPricesMapping[_item].price;\n    uint priceOfItemInMTK = getPriceOfItemInMTK(_item);\n    deductMTKFromPurchaserOfItem(priceOfItemInMTK);\n    //update the most recent price of the item in MTK\n    itemToMostRecentPriceInMTK[_item] = priceOfItemInMTK;\n    //increment marketplace earnings in USD\n    earningsInUSD = earningsInUSD + priceOfItemInUSD;\n    return _item;\n  }\n\n  function deductMTKFromPurchaserOfItem(uint _priceOfItemInMTK) private {\n    MyToken myToken = MyToken(myTokenAddress);\n    //decrement the purchaser's MTK balance\n    myToken.transferFrom(msg.sender, myTokenAddress, _priceOfItemInMTK);\n  }\n}\n",
  "sourcePath": "/Users/doolaugh/Desktop/truffle-project/contracts/Marketplace.sol",
  "compiler": {
    "name": "solc",
    "version": "0.6.0+commit.26b70077.Linux.g++"
  },
  "schemaVersion": "3.3.2",
  "updatedAt": "2020-12-10T05:09:49.148Z",
  "networkType": "ethereum",
  "devdoc": {
    "methods": {}
  },
  "userdoc": {
    "methods": {}
  }
}