{
  "contractName": "Marketplace",
  "abi": [
    {
      "inputs": [],
      "stateMutability": "nonpayable",
      "type": "constructor"
    },
    {
      "inputs": [
        {
          "internalType": "uint256",
          "name": "",
          "type": "uint256"
        }
      ],
      "name": "items",
      "outputs": [
        {
          "internalType": "string",
          "name": "",
          "type": "string"
        }
      ],
      "stateMutability": "view",
      "type": "function",
      "constant": true
    },
    {
      "inputs": [
        {
          "internalType": "uint256",
          "name": "",
          "type": "uint256"
        }
      ],
      "name": "prices",
      "outputs": [
        {
          "internalType": "uint256",
          "name": "",
          "type": "uint256"
        }
      ],
      "stateMutability": "view",
      "type": "function",
      "constant": true
    },
    {
      "inputs": [],
      "name": "getItem1",
      "outputs": [
        {
          "internalType": "string",
          "name": "",
          "type": "string"
        }
      ],
      "stateMutability": "view",
      "type": "function",
      "constant": true
    },
    {
      "inputs": [],
      "name": "getPriceForItem1",
      "outputs": [
        {
          "internalType": "uint256",
          "name": "",
          "type": "uint256"
        }
      ],
      "stateMutability": "view",
      "type": "function",
      "constant": true
    },
    {
      "inputs": [],
      "name": "getItem2",
      "outputs": [
        {
          "internalType": "string",
          "name": "",
          "type": "string"
        }
      ],
      "stateMutability": "view",
      "type": "function",
      "constant": true
    },
    {
      "inputs": [],
      "name": "getPriceForItem2",
      "outputs": [
        {
          "internalType": "uint256",
          "name": "",
          "type": "uint256"
        }
      ],
      "stateMutability": "view",
      "type": "function",
      "constant": true
    },
    {
      "inputs": [],
      "name": "getMyTokenAddress",
      "outputs": [
        {
          "internalType": "address",
          "name": "",
          "type": "address"
        }
      ],
      "stateMutability": "view",
      "type": "function",
      "constant": true
    },
    {
      "inputs": [
        {
          "internalType": "address",
          "name": "_myTokenAddress",
          "type": "address"
        }
      ],
      "name": "setMyTokenAddress",
      "outputs": [],
      "stateMutability": "nonpayable",
      "type": "function"
    },
    {
      "inputs": [],
      "name": "getMarketplaceBalanceOfMyToken",
      "outputs": [
        {
          "internalType": "uint256",
          "name": "",
          "type": "uint256"
        }
      ],
      "stateMutability": "view",
      "type": "function",
      "constant": true
    }
  ],
  "bytecode": "0x608060405234801561001057600080fd5b50600080546001810182559080526040805180820190915260068082527f6974656d5f3100000000000000000000000000000000000000000000000000006020909201918252610071926000805160206106a4833981519152019190610118565b50600180548082018255600a6000805160206106c48339815191529091015560008054918201815580526040805180820190915260068082527f6974656d5f32000000000000000000000000000000000000000000000000000060209092019182526100ee926000805160206106a4833981519152019190610118565b5060018054808201825560009190915260146000805160206106c4833981519152909101556101b3565b828054600181600116156101000203166002900490600052602060002090601f016020900481019282601f1061015957805160ff1916838001178555610186565b82800160010185558215610186579182015b8281111561018657825182559160200191906001019061016b565b50610192929150610196565b5090565b6101b091905b80821115610192576000815560010161019c565b90565b6104e2806101c26000396000f3fe608060405234801561001057600080fd5b50600436106100b0576000357c010000000000000000000000000000000000000000000000000000000090048063bc31c1c111610083578063bc31c1c114610185578063bfb231d2146101a2578063ceb43764146101bf578063ed3df8df146101c7578063fe4a5875146101fc576100b0565b806318a2985b146100b55780636cc7deba14610132578063af53b7fa1461013a578063b506abba14610154575b600080fd5b6100bd610204565b6040805160208082528351818301528351919283929083019185019080838360005b838110156100f75781810151838201526020016100df565b50505050905090810190601f1680156101245780820380516001836020036101000a031916815260200191505b509250505060405180910390f35b6100bd6102ab565b6101426102bb565b60408051918252519081900360200190f35b61015c6102da565b6040805173ffffffffffffffffffffffffffffffffffffffff9092168252519081900360200190f35b6101426004803603602081101561019b57600080fd5b50356102f6565b6100bd600480360360208110156101b857600080fd5b5035610314565b6101426103ba565b6101fa600480360360208110156101dd57600080fd5b503573ffffffffffffffffffffffffffffffffffffffff166103ca565b005b610142610406565b60606000808154811061021357fe5b600091825260209182902001805460408051601f60026000196101006001871615020190941693909304928301859004850281018501909152818152928301828280156102a15780601f10610276576101008083540402835291602001916102a1565b820191906000526020600020905b81548152906001019060200180831161028457829003601f168201915b5050505050905090565b6060600060018154811061021357fe5b6000600180815481106102ca57fe5b9060005260206000200154905090565b60025473ffffffffffffffffffffffffffffffffffffffff1690565b6001818154811061030357fe5b600091825260209091200154905081565b6000818154811061032157fe5b600091825260209182902001805460408051601f60026000196101006001871615020190941693909304928301859004850281018501909152818152935090918301828280156103b25780601f10610387576101008083540402835291602001916103b2565b820191906000526020600020905b81548152906001019060200180831161039557829003601f168201915b505050505081565b600060016000815481106102ca57fe5b6002805473ffffffffffffffffffffffffffffffffffffffff191673ffffffffffffffffffffffffffffffffffffffff92909216919091179055565b600254604080517f70a08231000000000000000000000000000000000000000000000000000000008152306004820152905160009273ffffffffffffffffffffffffffffffffffffffff169182916370a0823191602480820192602092909190829003018186803b15801561047a57600080fd5b505afa15801561048e573d6000803e3d6000fd5b505050506040513d60208110156104a457600080fd5b50919291505056fea2646970667358221220b29b8182bf3c30a75f7e5bf894b057fe5e8c47658ec2d2d519f8d90dc74656c264736f6c63430006000033290decd9548b62a8d60345a988386fc84ba6bc95484008f6362f93160ef3e563b10e2d527612073b26eecdfd717e6a320cf44b4afac2b0732d9fcbe2b7fa0cf6",
  "source": "pragma solidity ^0.6.0;\n\nimport './MyToken.sol';\n\ncontract Marketplace {\n  string[] public items;\n  uint256[] public prices;\n  address myTokenAddress;\n\n  constructor() public {\n    items.push(\"item_1\");\n    prices.push(10);\n    items.push(\"item_2\");\n    prices.push(20);\n  }\n\n  function getItem1() public view returns (string memory) {\n    return items[0];\n  }\n\n  function getPriceForItem1() public view returns (uint256) {\n    return prices[0];\n  }\n\n  function getItem2() public view returns (string memory) {\n    return items[1];\n  }\n\n  function getPriceForItem2() public view returns (uint256) {\n    return prices[1];\n  }\n\n  function getMyTokenAddress() public view returns (address) {\n    return myTokenAddress;\n  }\n\n  function setMyTokenAddress(address _myTokenAddress) public {\n    myTokenAddress = _myTokenAddress;\n  }\n\n  function getMarketplaceBalanceOfMyToken() public view returns (uint256) {\n    MyToken myToken = MyToken(myTokenAddress);\n    myToken.balanceOf(address(this));\n  }\n\n  //have a get method to return bytes32[] array of item names\n  //have a method to return array of associated prices\n\n  //delegate permission for marketplace to transfer Tokens\n  //then transfer tokens from msg.sender to address(myToken)\n  //this will decrement the msg.sender balance\n  //In addition make sure to increment the marketplace earnings in USD\n}\n",
  "sourcePath": "/Users/doolaugh/Desktop/truffle-project/contracts/Marketplace.sol",
  "compiler": {
    "name": "solc",
    "version": "0.6.0+commit.26b70077.Linux.g++"
  },
  "schemaVersion": "3.3.2",
  "updatedAt": "2020-12-09T22:17:59.280Z",
  "networkType": "ethereum",
  "devdoc": {
    "methods": {}
  },
  "userdoc": {
    "methods": {}
  }
}