{
  "contractName": "MyToken",
  "abi": [
    {
      "inputs": [
        {
          "internalType": "string",
          "name": "_name",
          "type": "string"
        },
        {
          "internalType": "string",
          "name": "_symbol",
          "type": "string"
        }
      ],
      "stateMutability": "nonpayable",
      "type": "constructor"
    },
    {
      "anonymous": false,
      "inputs": [
        {
          "indexed": true,
          "internalType": "address",
          "name": "owner",
          "type": "address"
        },
        {
          "indexed": true,
          "internalType": "address",
          "name": "spender",
          "type": "address"
        },
        {
          "indexed": false,
          "internalType": "uint256",
          "name": "value",
          "type": "uint256"
        }
      ],
      "name": "Approval",
      "type": "event"
    },
    {
      "anonymous": false,
      "inputs": [
        {
          "indexed": true,
          "internalType": "address",
          "name": "from",
          "type": "address"
        },
        {
          "indexed": true,
          "internalType": "address",
          "name": "to",
          "type": "address"
        },
        {
          "indexed": false,
          "internalType": "uint256",
          "name": "value",
          "type": "uint256"
        }
      ],
      "name": "Transfer",
      "type": "event"
    },
    {
      "inputs": [
        {
          "internalType": "address",
          "name": "owner",
          "type": "address"
        },
        {
          "internalType": "address",
          "name": "spender",
          "type": "address"
        }
      ],
      "name": "allowance",
      "outputs": [
        {
          "internalType": "uint256",
          "name": "",
          "type": "uint256"
        }
      ],
      "stateMutability": "view",
      "type": "function",
      "constant": true
    },
    {
      "inputs": [
        {
          "internalType": "address",
          "name": "spender",
          "type": "address"
        },
        {
          "internalType": "uint256",
          "name": "amount",
          "type": "uint256"
        }
      ],
      "name": "approve",
      "outputs": [
        {
          "internalType": "bool",
          "name": "",
          "type": "bool"
        }
      ],
      "stateMutability": "nonpayable",
      "type": "function"
    },
    {
      "inputs": [
        {
          "internalType": "address",
          "name": "account",
          "type": "address"
        }
      ],
      "name": "balanceOf",
      "outputs": [
        {
          "internalType": "uint256",
          "name": "",
          "type": "uint256"
        }
      ],
      "stateMutability": "view",
      "type": "function",
      "constant": true
    },
    {
      "inputs": [],
      "name": "decimals",
      "outputs": [
        {
          "internalType": "uint8",
          "name": "",
          "type": "uint8"
        }
      ],
      "stateMutability": "view",
      "type": "function",
      "constant": true
    },
    {
      "inputs": [
        {
          "internalType": "address",
          "name": "spender",
          "type": "address"
        },
        {
          "internalType": "uint256",
          "name": "subtractedValue",
          "type": "uint256"
        }
      ],
      "name": "decreaseAllowance",
      "outputs": [
        {
          "internalType": "bool",
          "name": "",
          "type": "bool"
        }
      ],
      "stateMutability": "nonpayable",
      "type": "function"
    },
    {
      "inputs": [],
      "name": "defaultAddress",
      "outputs": [
        {
          "internalType": "address",
          "name": "",
          "type": "address"
        }
      ],
      "stateMutability": "view",
      "type": "function",
      "constant": true
    },
    {
      "inputs": [
        {
          "internalType": "address",
          "name": "spender",
          "type": "address"
        },
        {
          "internalType": "uint256",
          "name": "addedValue",
          "type": "uint256"
        }
      ],
      "name": "increaseAllowance",
      "outputs": [
        {
          "internalType": "bool",
          "name": "",
          "type": "bool"
        }
      ],
      "stateMutability": "nonpayable",
      "type": "function"
    },
    {
      "inputs": [],
      "name": "name",
      "outputs": [
        {
          "internalType": "string",
          "name": "",
          "type": "string"
        }
      ],
      "stateMutability": "view",
      "type": "function",
      "constant": true
    },
    {
      "inputs": [],
      "name": "symbol",
      "outputs": [
        {
          "internalType": "string",
          "name": "",
          "type": "string"
        }
      ],
      "stateMutability": "view",
      "type": "function",
      "constant": true
    },
    {
      "inputs": [],
      "name": "totalSupply",
      "outputs": [
        {
          "internalType": "uint256",
          "name": "",
          "type": "uint256"
        }
      ],
      "stateMutability": "view",
      "type": "function",
      "constant": true
    },
    {
      "inputs": [
        {
          "internalType": "address",
          "name": "recipient",
          "type": "address"
        },
        {
          "internalType": "uint256",
          "name": "amount",
          "type": "uint256"
        }
      ],
      "name": "transfer",
      "outputs": [
        {
          "internalType": "bool",
          "name": "",
          "type": "bool"
        }
      ],
      "stateMutability": "nonpayable",
      "type": "function"
    },
    {
      "inputs": [
        {
          "internalType": "address",
          "name": "sender",
          "type": "address"
        },
        {
          "internalType": "address",
          "name": "recipient",
          "type": "address"
        },
        {
          "internalType": "uint256",
          "name": "amount",
          "type": "uint256"
        }
      ],
      "name": "transferFrom",
      "outputs": [
        {
          "internalType": "bool",
          "name": "",
          "type": "bool"
        }
      ],
      "stateMutability": "nonpayable",
      "type": "function"
    }
  ],
  "bytecode": "0x60806040523480156200001157600080fd5b5060405162000f0538038062000f05833981810160405260408110156200003757600080fd5b81019080805160405193929190846401000000008211156200005857600080fd5b9083019060208201858111156200006e57600080fd5b82516401000000008111828201881017156200008957600080fd5b82525081516020918201929091019080838360005b83811015620000b85781810151838201526020016200009e565b50505050905090810190601f168015620000e65780820380516001836020036101000a031916815260200191505b50604052602001805160405193929190846401000000008211156200010a57600080fd5b9083019060208201858111156200012057600080fd5b82516401000000008111828201881017156200013b57600080fd5b82525081516020918201929091019080838360005b838110156200016a57818101518382015260200162000150565b50505050905090810190601f168015620001985780820380516001836020036101000a031916815260200191505b50604052505082518391508290620001b8906003906020850190620003ca565b508051620001ce906004906020840190620003ca565b50506005805460ff19166012179055506200020b73e0711c14f112eda3600ecc9e7ae704a7c7c1732a6305f5e10064010000000062000213810204565b50506200046f565b600160a060020a0382166200028957604080517f08c379a000000000000000000000000000000000000000000000000000000000815260206004820152601f60248201527f45524332303a206d696e7420746f20746865207a65726f206164647265737300604482015290519081900360640190fd5b620002a06000838364010000000062000349810204565b600254620002bd9082640100000000620008e66200034e82021704565b600255600160a060020a038216600090815260208190526040902054620002f39082640100000000620008e66200034e82021704565b600160a060020a0383166000818152602081815260408083209490945583518581529351929391927fddf252ad1be2c89b69c2b068fc378daa952ba7f163c4a11628f55a4df523b3ef9281900390910190a35050565b505050565b600082820183811015620003c357604080517f08c379a000000000000000000000000000000000000000000000000000000000815260206004820152601b60248201527f536166654d6174683a206164646974696f6e206f766572666c6f770000000000604482015290519081900360640190fd5b9392505050565b828054600181600116156101000203166002900490600052602060002090601f016020900481019282601f106200040d57805160ff19168380011785556200043d565b828001600101855582156200043d579182015b828111156200043d57825182559160200191906001019062000420565b506200044b9291506200044f565b5090565b6200046c91905b808211156200044b576000815560010162000456565b90565b610a86806200047f6000396000f3fe608060405234801561001057600080fd5b50600436106100d1576000357c0100000000000000000000000000000000000000000000000000000000900480635c1016931161008e5780635c1016931461022d57806370a082311461025157806395d89b4114610277578063a457c2d71461027f578063a9059cbb146102ab578063dd62ed3e146102d7576100d1565b806306fdde03146100d6578063095ea7b31461015357806318160ddd1461019357806323b872dd146101ad578063313ce567146101e35780633950935114610201575b600080fd5b6100de610305565b6040805160208082528351818301528351919283929083019185019080838360005b83811015610118578181015183820152602001610100565b50505050905090810190601f1680156101455780820380516001836020036101000a031916815260200191505b509250505060405180910390f35b61017f6004803603604081101561016957600080fd5b50600160a060020a03813516906020013561039b565b604080519115158252519081900360200190f35b61019b6103b8565b60408051918252519081900360200190f35b61017f600480360360608110156101c357600080fd5b50600160a060020a038135811691602081013590911690604001356103be565b6101eb61044b565b6040805160ff9092168252519081900360200190f35b61017f6004803603604081101561021757600080fd5b50600160a060020a038135169060200135610454565b6102356104a8565b60408051600160a060020a039092168252519081900360200190f35b61019b6004803603602081101561026757600080fd5b5035600160a060020a03166104c0565b6100de6104db565b61017f6004803603604081101561029557600080fd5b50600160a060020a03813516906020013561053c565b61017f600480360360408110156102c157600080fd5b50600160a060020a0381351690602001356105aa565b61019b600480360360408110156102ed57600080fd5b50600160a060020a03813581169160200135166105be565b60038054604080516020601f60026000196101006001881615020190951694909404938401819004810282018101909252828152606093909290918301828280156103915780601f1061036657610100808354040283529160200191610391565b820191906000526020600020905b81548152906001019060200180831161037457829003601f168201915b5050505050905090565b60006103af6103a86105e9565b84846105ed565b50600192915050565b60025490565b60006103cb8484846106df565b610441846103d76105e9565b61043c856040518060600160405280602881526020016109bb60289139600160a060020a038a166000908152600160205260408120906104156105e9565b600160a060020a03168152602081019190915260400160002054919063ffffffff61084c16565b6105ed565b5060019392505050565b60055460ff1690565b60006103af6104616105e9565b8461043c85600160006104726105e9565b600160a060020a03908116825260208083019390935260409182016000908120918c16815292529020549063ffffffff6108e616565b73e0711c14f112eda3600ecc9e7ae704a7c7c1732a81565b600160a060020a031660009081526020819052604090205490565b60048054604080516020601f60026000196101006001881615020190951694909404938401819004810282018101909252828152606093909290918301828280156103915780601f1061036657610100808354040283529160200191610391565b60006103af6105496105e9565b8461043c85604051806060016040528060258152602001610a2c60259139600160006105736105e9565b600160a060020a03908116825260208083019390935260409182016000908120918d1681529252902054919063ffffffff61084c16565b60006103af6105b76105e9565b84846106df565b600160a060020a03918216600090815260016020908152604080832093909416825291909152205490565b3390565b600160a060020a0383166106355760405160e560020a62461bcd028152600401808060200182810382526024815260200180610a086024913960400191505060405180910390fd5b600160a060020a03821661067d5760405160e560020a62461bcd0281526004018080602001828103825260228152602001806109736022913960400191505060405180910390fd5b600160a060020a03808416600081815260016020908152604080832094871680845294825291829020859055815185815291517f8c5be1e5ebec7d5bd14f71427d1e84f3dd0314c0f7b2291e5b200ac8c7c3b9259281900390910190a3505050565b600160a060020a0383166107275760405160e560020a62461bcd0281526004018080602001828103825260258152602001806109e36025913960400191505060405180910390fd5b600160a060020a03821661076f5760405160e560020a62461bcd0281526004018080602001828103825260238152602001806109506023913960400191505060405180910390fd5b61077a83838361094a565b6107bd8160405180606001604052806026815260200161099560269139600160a060020a038616600090815260208190526040902054919063ffffffff61084c16565b600160a060020a0380851660009081526020819052604080822093909355908416815220546107f2908263ffffffff6108e616565b600160a060020a038084166000818152602081815260409182902094909455805185815290519193928716927fddf252ad1be2c89b69c2b068fc378daa952ba7f163c4a11628f55a4df523b3ef92918290030190a3505050565b600081848411156108de5760405160e560020a62461bcd0281526004018080602001828103825283818151815260200191508051906020019080838360005b838110156108a357818101518382015260200161088b565b50505050905090810190601f1680156108d05780820380516001836020036101000a031916815260200191505b509250505060405180910390fd5b505050900390565b600082820183811015610943576040805160e560020a62461bcd02815260206004820152601b60248201527f536166654d6174683a206164646974696f6e206f766572666c6f770000000000604482015290519081900360640190fd5b9392505050565b50505056fe45524332303a207472616e7366657220746f20746865207a65726f206164647265737345524332303a20617070726f766520746f20746865207a65726f206164647265737345524332303a207472616e7366657220616d6f756e7420657863656564732062616c616e636545524332303a207472616e7366657220616d6f756e74206578636565647320616c6c6f77616e636545524332303a207472616e736665722066726f6d20746865207a65726f206164647265737345524332303a20617070726f76652066726f6d20746865207a65726f206164647265737345524332303a2064656372656173656420616c6c6f77616e63652062656c6f77207a65726fa264697066735822122094630a4d3ba2a4e9f5c46025f3f1cfa50b636dea9cab1bc018642ad4c9ed6e7964736f6c63430006000033",
  "source": "pragma solidity ^0.6.0;\n\nimport '@openzeppelin/contracts/token/ERC20/ERC20.sol';\n\ncontract MyToken is ERC20 {\n  address constant public defaultAddress = 0xE0711c14f112EDa3600eCC9e7Ae704a7C7C1732a;\n  constructor(string memory _name, string memory _symbol) ERC20(_name, _symbol) public {\n    //_mint(address(this), 1000);\n    //transfer(defaultAddress, 100);\n    _mint(defaultAddress, 100000000);\n  }\n}\n",
  "sourcePath": "/Users/doolaugh/Desktop/truffle-project/contracts/MyToken.sol",
  "compiler": {
    "name": "solc",
    "version": "0.6.0+commit.26b70077.Linux.g++"
  },
  "schemaVersion": "3.3.2",
  "updatedAt": "2020-12-10T05:09:48.544Z",
  "networkType": "ethereum",
  "devdoc": {
    "methods": {
      "allowance(address,address)": {
        "details": "See {IERC20-allowance}."
      },
      "approve(address,uint256)": {
        "details": "See {IERC20-approve}.     * Requirements:     * - `spender` cannot be the zero address."
      },
      "balanceOf(address)": {
        "details": "See {IERC20-balanceOf}."
      },
      "decimals()": {
        "details": "Returns the number of decimals used to get its user representation. For example, if `decimals` equals `2`, a balance of `505` tokens should be displayed to a user as `5,05` (`505 / 10 ** 2`).     * Tokens usually opt for a value of 18, imitating the relationship between Ether and Wei. This is the value {ERC20} uses, unless {_setupDecimals} is called.     * NOTE: This information is only used for _display_ purposes: it in no way affects any of the arithmetic of the contract, including {IERC20-balanceOf} and {IERC20-transfer}."
      },
      "decreaseAllowance(address,uint256)": {
        "details": "Atomically decreases the allowance granted to `spender` by the caller.     * This is an alternative to {approve} that can be used as a mitigation for problems described in {IERC20-approve}.     * Emits an {Approval} event indicating the updated allowance.     * Requirements:     * - `spender` cannot be the zero address. - `spender` must have allowance for the caller of at least `subtractedValue`."
      },
      "increaseAllowance(address,uint256)": {
        "details": "Atomically increases the allowance granted to `spender` by the caller.     * This is an alternative to {approve} that can be used as a mitigation for problems described in {IERC20-approve}.     * Emits an {Approval} event indicating the updated allowance.     * Requirements:     * - `spender` cannot be the zero address."
      },
      "name()": {
        "details": "Returns the name of the token."
      },
      "symbol()": {
        "details": "Returns the symbol of the token, usually a shorter version of the name."
      },
      "totalSupply()": {
        "details": "See {IERC20-totalSupply}."
      },
      "transfer(address,uint256)": {
        "details": "See {IERC20-transfer}.     * Requirements:     * - `recipient` cannot be the zero address. - the caller must have a balance of at least `amount`."
      },
      "transferFrom(address,address,uint256)": {
        "details": "See {IERC20-transferFrom}.     * Emits an {Approval} event indicating the updated allowance. This is not required by the EIP. See the note at the beginning of {ERC20}.     * Requirements:     * - `sender` and `recipient` cannot be the zero address. - `sender` must have a balance of at least `amount`. - the caller must have allowance for ``sender``'s tokens of at least `amount`."
      }
    }
  },
  "userdoc": {
    "methods": {}
  }
}